{
  "_format": "hh-sol-artifact-1",
  "contractName": "Tokenizer",
  "sourceName": "contracts/Tokenizer.sol",
  "abi": [
    {
      "inputs": [],
      "stateMutability": "nonpayable",
      "type": "constructor"
    },
    {
      "anonymous": false,
      "inputs": [
        {
          "indexed": true,
          "internalType": "address",
          "name": "newAgentApproved",
          "type": "address"
        }
      ],
      "name": "AgentApproved",
      "type": "event"
    },
    {
      "anonymous": false,
      "inputs": [
        {
          "indexed": true,
          "internalType": "address",
          "name": "agent",
          "type": "address"
        },
        {
          "indexed": true,
          "internalType": "address",
          "name": "propertyOwner",
          "type": "address"
        },
        {
          "indexed": true,
          "internalType": "uint256",
          "name": "tokenId",
          "type": "uint256"
        }
      ],
      "name": "AgentApprovedProperty",
      "type": "event"
    },
    {
      "anonymous": false,
      "inputs": [
        {
          "indexed": true,
          "internalType": "address",
          "name": "owner",
          "type": "address"
        },
        {
          "indexed": true,
          "internalType": "address",
          "name": "approved",
          "type": "address"
        },
        {
          "indexed": true,
          "internalType": "uint256",
          "name": "tokenId",
          "type": "uint256"
        }
      ],
      "name": "Approval",
      "type": "event"
    },
    {
      "anonymous": false,
      "inputs": [
        {
          "indexed": true,
          "internalType": "address",
          "name": "owner",
          "type": "address"
        },
        {
          "indexed": true,
          "internalType": "address",
          "name": "operator",
          "type": "address"
        },
        {
          "indexed": false,
          "internalType": "bool",
          "name": "approved",
          "type": "bool"
        }
      ],
      "name": "ApprovalForAll",
      "type": "event"
    },
    {
      "anonymous": false,
      "inputs": [
        {
          "indexed": true,
          "internalType": "bytes32",
          "name": "id",
          "type": "bytes32"
        }
      ],
      "name": "ChainlinkCancelled",
      "type": "event"
    },
    {
      "anonymous": false,
      "inputs": [
        {
          "indexed": true,
          "internalType": "bytes32",
          "name": "id",
          "type": "bytes32"
        }
      ],
      "name": "ChainlinkFulfilled",
      "type": "event"
    },
    {
      "anonymous": false,
      "inputs": [
        {
          "indexed": true,
          "internalType": "bytes32",
          "name": "id",
          "type": "bytes32"
        }
      ],
      "name": "ChainlinkRequested",
      "type": "event"
    },
    {
      "anonymous": false,
      "inputs": [
        {
          "indexed": true,
          "internalType": "address",
          "name": "revokedLicenseAddress",
          "type": "address"
        }
      ],
      "name": "LicenseRevoked",
      "type": "event"
    },
    {
      "anonymous": false,
      "inputs": [
        {
          "indexed": true,
          "internalType": "address",
          "name": "newOwnerApproved",
          "type": "address"
        }
      ],
      "name": "OwnerApproved",
      "type": "event"
    },
    {
      "anonymous": false,
      "inputs": [
        {
          "indexed": true,
          "internalType": "address",
          "name": "newOwner",
          "type": "address"
        },
        {
          "indexed": true,
          "internalType": "uint256",
          "name": "tokenId",
          "type": "uint256"
        }
      ],
      "name": "OwnerChanged",
      "type": "event"
    },
    {
      "anonymous": false,
      "inputs": [
        {
          "indexed": true,
          "internalType": "address",
          "name": "buyer",
          "type": "address"
        },
        {
          "indexed": true,
          "internalType": "uint256",
          "name": "paymentAmount",
          "type": "uint256"
        },
        {
          "indexed": true,
          "internalType": "uint256",
          "name": "tokenId",
          "type": "uint256"
        }
      ],
      "name": "PaymentRecieved",
      "type": "event"
    },
    {
      "anonymous": false,
      "inputs": [
        {
          "indexed": true,
          "internalType": "uint256",
          "name": "tokenId",
          "type": "uint256"
        },
        {
          "indexed": true,
          "internalType": "uint256",
          "name": "newPrice",
          "type": "uint256"
        }
      ],
      "name": "PropertyPriceChanged",
      "type": "event"
    },
    {
      "anonymous": false,
      "inputs": [
        {
          "indexed": true,
          "internalType": "address",
          "name": "registeringAddress",
          "type": "address"
        },
        {
          "indexed": true,
          "internalType": "uint256",
          "name": "originalPrice",
          "type": "uint256"
        }
      ],
      "name": "PropertyRegistered",
      "type": "event"
    },
    {
      "anonymous": false,
      "inputs": [
        {
          "indexed": true,
          "internalType": "address",
          "name": "owner",
          "type": "address"
        },
        {
          "indexed": true,
          "internalType": "uint256",
          "name": "tokenId",
          "type": "uint256"
        }
      ],
      "name": "SaleApproved",
      "type": "event"
    },
    {
      "anonymous": false,
      "inputs": [
        {
          "indexed": true,
          "internalType": "address",
          "name": "from",
          "type": "address"
        },
        {
          "indexed": true,
          "internalType": "address",
          "name": "to",
          "type": "address"
        },
        {
          "indexed": true,
          "internalType": "uint256",
          "name": "tokenId",
          "type": "uint256"
        }
      ],
      "name": "Transfer",
      "type": "event"
    },
    {
      "inputs": [
        {
          "internalType": "address",
          "name": "toBeApproved",
          "type": "address"
        }
      ],
      "name": "agentApproval",
      "outputs": [],
      "stateMutability": "nonpayable",
      "type": "function"
    },
    {
      "inputs": [
        {
          "internalType": "address",
          "name": "to",
          "type": "address"
        },
        {
          "internalType": "uint256",
          "name": "tokenId",
          "type": "uint256"
        }
      ],
      "name": "approve",
      "outputs": [],
      "stateMutability": "nonpayable",
      "type": "function"
    },
    {
      "inputs": [
        {
          "internalType": "uint256",
          "name": "_tokenId",
          "type": "uint256"
        }
      ],
      "name": "approveForSaleByOwner",
      "outputs": [],
      "stateMutability": "nonpayable",
      "type": "function"
    },
    {
      "inputs": [
        {
          "internalType": "address",
          "name": "_potentialAgent",
          "type": "address"
        }
      ],
      "name": "approveLicense",
      "outputs": [],
      "stateMutability": "nonpayable",
      "type": "function"
    },
    {
      "inputs": [
        {
          "internalType": "address",
          "name": "_propertyOwner",
          "type": "address"
        }
      ],
      "name": "approveProperty",
      "outputs": [
        {
          "internalType": "uint256",
          "name": "",
          "type": "uint256"
        }
      ],
      "stateMutability": "nonpayable",
      "type": "function"
    },
    {
      "inputs": [
        {
          "internalType": "address",
          "name": "_potentialOwner",
          "type": "address"
        }
      ],
      "name": "approvePropertyOwner",
      "outputs": [],
      "stateMutability": "nonpayable",
      "type": "function"
    },
    {
      "inputs": [
        {
          "internalType": "address",
          "name": "",
          "type": "address"
        }
      ],
      "name": "approved",
      "outputs": [
        {
          "internalType": "bool",
          "name": "",
          "type": "bool"
        }
      ],
      "stateMutability": "view",
      "type": "function"
    },
    {
      "inputs": [
        {
          "internalType": "address",
          "name": "",
          "type": "address"
        }
      ],
      "name": "awaitingApproval",
      "outputs": [
        {
          "internalType": "bytes32",
          "name": "propertyOwner",
          "type": "bytes32"
        },
        {
          "internalType": "bytes32",
          "name": "propertyAddress",
          "type": "bytes32"
        },
        {
          "internalType": "uint256",
          "name": "currentPrice",
          "type": "uint256"
        },
        {
          "internalType": "uint256",
          "name": "changePriceCount",
          "type": "uint256"
        },
        {
          "internalType": "bool",
          "name": "saleApproved",
          "type": "bool"
        },
        {
          "internalType": "bool",
          "name": "paid",
          "type": "bool"
        }
      ],
      "stateMutability": "view",
      "type": "function"
    },
    {
      "inputs": [
        {
          "internalType": "address",
          "name": "owner",
          "type": "address"
        }
      ],
      "name": "balanceOf",
      "outputs": [
        {
          "internalType": "uint256",
          "name": "",
          "type": "uint256"
        }
      ],
      "stateMutability": "view",
      "type": "function"
    },
    {
      "inputs": [],
      "name": "baseURI",
      "outputs": [
        {
          "internalType": "string",
          "name": "",
          "type": "string"
        }
      ],
      "stateMutability": "view",
      "type": "function"
    },
    {
      "inputs": [
        {
          "internalType": "uint256",
          "name": "_tokenId",
          "type": "uint256"
        }
      ],
      "name": "burn",
      "outputs": [],
      "stateMutability": "nonpayable",
      "type": "function"
    },
    {
      "inputs": [
        {
          "internalType": "address",
          "name": "propertyOwner",
          "type": "address"
        },
        {
          "internalType": "uint256",
          "name": "_tokenId",
          "type": "uint256"
        },
        {
          "internalType": "uint256",
          "name": "newPrice",
          "type": "uint256"
        }
      ],
      "name": "changeCurrentPrice",
      "outputs": [],
      "stateMutability": "nonpayable",
      "type": "function"
    },
    {
      "inputs": [
        {
          "internalType": "string",
          "name": "newOwnerName",
          "type": "string"
        },
        {
          "internalType": "uint256",
          "name": "salt",
          "type": "uint256"
        },
        {
          "internalType": "uint256",
          "name": "_tokenId",
          "type": "uint256"
        }
      ],
      "name": "changeOwner",
      "outputs": [],
      "stateMutability": "nonpayable",
      "type": "function"
    },
    {
      "inputs": [],
      "name": "fee",
      "outputs": [
        {
          "internalType": "uint256",
          "name": "",
          "type": "uint256"
        }
      ],
      "stateMutability": "view",
      "type": "function"
    },
    {
      "inputs": [
        {
          "internalType": "bytes32",
          "name": "_requestId",
          "type": "bytes32"
        },
        {
          "internalType": "bool",
          "name": "response",
          "type": "bool"
        }
      ],
      "name": "fulfill",
      "outputs": [],
      "stateMutability": "nonpayable",
      "type": "function"
    },
    {
      "inputs": [
        {
          "internalType": "uint256",
          "name": "tokenId",
          "type": "uint256"
        }
      ],
      "name": "getApproved",
      "outputs": [
        {
          "internalType": "address",
          "name": "",
          "type": "address"
        }
      ],
      "stateMutability": "view",
      "type": "function"
    },
    {
      "inputs": [
        {
          "internalType": "uint256",
          "name": "_tokenId",
          "type": "uint256"
        },
        {
          "internalType": "address",
          "name": "propertyOwner",
          "type": "address"
        }
      ],
      "name": "homeValueEthToUsd",
      "outputs": [
        {
          "internalType": "int256",
          "name": "",
          "type": "int256"
        }
      ],
      "stateMutability": "view",
      "type": "function"
    },
    {
      "inputs": [
        {
          "internalType": "address",
          "name": "owner",
          "type": "address"
        },
        {
          "internalType": "address",
          "name": "operator",
          "type": "address"
        }
      ],
      "name": "isApprovedForAll",
      "outputs": [
        {
          "internalType": "bool",
          "name": "",
          "type": "bool"
        }
      ],
      "stateMutability": "view",
      "type": "function"
    },
    {
      "inputs": [],
      "name": "jobId",
      "outputs": [
        {
          "internalType": "bytes32",
          "name": "",
          "type": "bytes32"
        }
      ],
      "stateMutability": "view",
      "type": "function"
    },
    {
      "inputs": [
        {
          "internalType": "address",
          "name": "",
          "type": "address"
        }
      ],
      "name": "licensed",
      "outputs": [
        {
          "internalType": "bool",
          "name": "",
          "type": "bool"
        }
      ],
      "stateMutability": "view",
      "type": "function"
    },
    {
      "inputs": [
        {
          "internalType": "uint256",
          "name": "_tokenId",
          "type": "uint256"
        },
        {
          "internalType": "string",
          "name": "_propertyOwner",
          "type": "string"
        },
        {
          "internalType": "string",
          "name": "_propertyAddress",
          "type": "string"
        },
        {
          "internalType": "uint256",
          "name": "salt",
          "type": "uint256"
        }
      ],
      "name": "mintProperty",
      "outputs": [],
      "stateMutability": "nonpayable",
      "type": "function"
    },
    {
      "inputs": [],
      "name": "name",
      "outputs": [
        {
          "internalType": "string",
          "name": "",
          "type": "string"
        }
      ],
      "stateMutability": "view",
      "type": "function"
    },
    {
      "inputs": [
        {
          "internalType": "address",
          "name": "",
          "type": "address"
        }
      ],
      "name": "newOwner",
      "outputs": [
        {
          "internalType": "bool",
          "name": "",
          "type": "bool"
        }
      ],
      "stateMutability": "view",
      "type": "function"
    },
    {
      "inputs": [
        {
          "internalType": "address",
          "name": "",
          "type": "address"
        }
      ],
      "name": "numAgentApprovals",
      "outputs": [
        {
          "internalType": "uint256",
          "name": "",
          "type": "uint256"
        }
      ],
      "stateMutability": "view",
      "type": "function"
    },
    {
      "inputs": [],
      "name": "oracle",
      "outputs": [
        {
          "internalType": "address",
          "name": "",
          "type": "address"
        }
      ],
      "stateMutability": "view",
      "type": "function"
    },
    {
      "inputs": [
        {
          "internalType": "address",
          "name": "",
          "type": "address"
        }
      ],
      "name": "owner",
      "outputs": [
        {
          "internalType": "bool",
          "name": "",
          "type": "bool"
        }
      ],
      "stateMutability": "view",
      "type": "function"
    },
    {
      "inputs": [
        {
          "internalType": "uint256",
          "name": "tokenId",
          "type": "uint256"
        }
      ],
      "name": "ownerOf",
      "outputs": [
        {
          "internalType": "address",
          "name": "",
          "type": "address"
        }
      ],
      "stateMutability": "view",
      "type": "function"
    },
    {
      "inputs": [
        {
          "internalType": "uint256",
          "name": "_tokenId",
          "type": "uint256"
        },
        {
          "internalType": "address",
          "name": "propertyOwner",
          "type": "address"
        }
      ],
      "name": "payment",
      "outputs": [],
      "stateMutability": "payable",
      "type": "function"
    },
    {
      "inputs": [
        {
          "internalType": "string",
          "name": "_propertyOwner",
          "type": "string"
        },
        {
          "internalType": "string",
          "name": "_propertyAddress",
          "type": "string"
        },
        {
          "internalType": "uint256",
          "name": "salt",
          "type": "uint256"
        },
        {
          "internalType": "uint256",
          "name": "_currentPrice",
          "type": "uint256"
        }
      ],
      "name": "registerProperty",
      "outputs": [],
      "stateMutability": "nonpayable",
      "type": "function"
    },
    {
      "inputs": [
        {
          "internalType": "address",
          "name": "",
          "type": "address"
        }
      ],
      "name": "registeringAgent",
      "outputs": [
        {
          "internalType": "address",
          "name": "",
          "type": "address"
        }
      ],
      "stateMutability": "view",
      "type": "function"
    },
    {
      "inputs": [],
      "name": "revokeLicense",
      "outputs": [],
      "stateMutability": "nonpayable",
      "type": "function"
    },
    {
      "inputs": [
        {
          "internalType": "address",
          "name": "from",
          "type": "address"
        },
        {
          "internalType": "address",
          "name": "to",
          "type": "address"
        },
        {
          "internalType": "uint256",
          "name": "tokenId",
          "type": "uint256"
        }
      ],
      "name": "safeTransferFrom",
      "outputs": [],
      "stateMutability": "nonpayable",
      "type": "function"
    },
    {
      "inputs": [
        {
          "internalType": "address",
          "name": "from",
          "type": "address"
        },
        {
          "internalType": "address",
          "name": "to",
          "type": "address"
        },
        {
          "internalType": "uint256",
          "name": "tokenId",
          "type": "uint256"
        },
        {
          "internalType": "bytes",
          "name": "_data",
          "type": "bytes"
        }
      ],
      "name": "safeTransferFrom",
      "outputs": [],
      "stateMutability": "nonpayable",
      "type": "function"
    },
    {
      "inputs": [
        {
          "internalType": "address",
          "name": "_from",
          "type": "address"
        },
        {
          "internalType": "address",
          "name": "_to",
          "type": "address"
        },
        {
          "internalType": "uint256",
          "name": "_tokenId",
          "type": "uint256"
        }
      ],
      "name": "sell",
      "outputs": [],
      "stateMutability": "nonpayable",
      "type": "function"
    },
    {
      "inputs": [
        {
          "internalType": "address",
          "name": "operator",
          "type": "address"
        },
        {
          "internalType": "bool",
          "name": "approved",
          "type": "bool"
        }
      ],
      "name": "setApprovalForAll",
      "outputs": [],
      "stateMutability": "nonpayable",
      "type": "function"
    },
    {
      "inputs": [
        {
          "internalType": "bytes4",
          "name": "interfaceId",
          "type": "bytes4"
        }
      ],
      "name": "supportsInterface",
      "outputs": [
        {
          "internalType": "bool",
          "name": "",
          "type": "bool"
        }
      ],
      "stateMutability": "view",
      "type": "function"
    },
    {
      "inputs": [],
      "name": "symbol",
      "outputs": [
        {
          "internalType": "string",
          "name": "",
          "type": "string"
        }
      ],
      "stateMutability": "view",
      "type": "function"
    },
    {
      "inputs": [
        {
          "internalType": "uint256",
          "name": "index",
          "type": "uint256"
        }
      ],
      "name": "tokenByIndex",
      "outputs": [
        {
          "internalType": "uint256",
          "name": "",
          "type": "uint256"
        }
      ],
      "stateMutability": "view",
      "type": "function"
    },
    {
      "inputs": [],
      "name": "tokenId",
      "outputs": [
        {
          "internalType": "uint256",
          "name": "",
          "type": "uint256"
        }
      ],
      "stateMutability": "view",
      "type": "function"
    },
    {
      "inputs": [
        {
          "internalType": "address",
          "name": "owner",
          "type": "address"
        },
        {
          "internalType": "uint256",
          "name": "index",
          "type": "uint256"
        }
      ],
      "name": "tokenOfOwnerByIndex",
      "outputs": [
        {
          "internalType": "uint256",
          "name": "",
          "type": "uint256"
        }
      ],
      "stateMutability": "view",
      "type": "function"
    },
    {
      "inputs": [
        {
          "internalType": "uint256",
          "name": "tokenId",
          "type": "uint256"
        }
      ],
      "name": "tokenURI",
      "outputs": [
        {
          "internalType": "string",
          "name": "",
          "type": "string"
        }
      ],
      "stateMutability": "view",
      "type": "function"
    },
    {
      "inputs": [],
      "name": "totalSupply",
      "outputs": [
        {
          "internalType": "uint256",
          "name": "",
          "type": "uint256"
        }
      ],
      "stateMutability": "view",
      "type": "function"
    },
    {
      "inputs": [
        {
          "internalType": "address",
          "name": "from",
          "type": "address"
        },
        {
          "internalType": "address",
          "name": "to",
          "type": "address"
        },
        {
          "internalType": "uint256",
          "name": "tokenId",
          "type": "uint256"
        }
      ],
      "name": "transferFrom",
      "outputs": [],
      "stateMutability": "nonpayable",
      "type": "function"
    }
  ],
  "bytecode": "0x608060405260016004553480156200001657600080fd5b50604080518082018252600e81526d283937b832b93a3c902a37b5b2b760911b60208083019190915282518084019093526002835261141560f21b9083015290620000716301ffc9a760e01b6001600160e01b036200016d16565b81516200008690600c906020850190620002a5565b5080516200009c90600d906020840190620002a5565b50620000b86380ac58cd60e01b6001600160e01b036200016d16565b620000d3635b5e139f60e01b6001600160e01b036200016d16565b620000ee63780e9d6360e01b6001600160e01b036200016d16565b50506000601955620001086001600160e01b03620001f216565b601a805473605c9b6f969a27982fe1be16e3a24f6720a14bed6001600160a01b031991821681179092557fc5d2460186f7233c927e7db2dcc703c0e500b653ca82273b7bfad8045d85a470601b556001601c556010805490911690911790556200034a565b6001600160e01b03198082161415620001cd576040805162461bcd60e51b815260206004820152601c60248201527f4552433136353a20696e76616c696420696e7465726661636520696400000000604482015290519081900360640190fd5b6001600160e01b0319166000908152600660205260409020805460ff19166001179055565b6200028173c89bd4e1632d3a43cb03aaad5262cbe4038bc5716001600160a01b03166338cc48316040518163ffffffff1660e01b815260040160206040518083038186803b1580156200024457600080fd5b505afa15801562000259573d6000803e3d6000fd5b505050506040513d60208110156200027057600080fd5b50516001600160e01b036200028316565b565b600280546001600160a01b0319166001600160a01b0392909216919091179055565b828054600181600116156101000203166002900490600052602060002090601f016020900481019282601f10620002e857805160ff191683800117855562000318565b8280016001018555821562000318579182015b8281111562000318578251825591602001919060010190620002fb565b50620003269291506200032a565b5090565b6200034791905b8082111562000326576000815560010162000331565b90565b6140fa806200035a6000396000f3fe60806040526004361061025c5760003560e01c80637211727811610144578063b3416432116100b6578063d8b964e61161007a578063d8b964e614610b6e578063ddca3f4314610ba1578063e044dab814610bb6578063e985e9c514610c87578063fadc3aa014610cc2578063fd68990a14610cec5761025c565b8063b3416432146109e8578063b88d4fde14610a1b578063c2939d9714610aec578063c87b56dd14610b01578063cae270b614610b2b5761025c565b80638d512720116101085780638d5127201461089657806391fb8d47146108c957806395d89b411461094a578063983728b51461095f578063a22cb46514610974578063a8b9bbf8146109af5761025c565b8063721172781461077e5780637dc0d1d0146107b157806383388085146107c6578063845617d5146107f957806385952454146108635761025c565b80633e1d3ca9116101dd5780635fdaf061116101a15780635fdaf0611461067a5780636352211e146106ad578063666e1b39146106d75780636c0360eb1461070a5780636c0edf861461071f57806370a082311461074b5761025c565b80633e1d3ca9146104de57806342842e0e1461051157806342966c68146105545780634f6ccce71461057e5780635eb6a4b9146105a85761025c565b806317d70f7c1161022457806317d70f7c146103f957806318160ddd1461040e578063223e3ed21461042357806323b872dd146104625780632f745c59146104a55761025c565b806301ffc9a71461026157806306fdde03146102a9578063081812fc14610333578063095ea7b31461037957806311798bd1146103b4575b600080fd5b34801561026d57600080fd5b506102956004803603602081101561028457600080fd5b50356001600160e01b031916610d1e565b604080519115158252519081900360200190f35b3480156102b557600080fd5b506102be610d41565b6040805160208082528351818301528351919283929083019185019080838360005b838110156102f85781810151838201526020016102e0565b50505050905090810190601f1680156103255780820380516001836020036101000a031916815260200191505b509250505060405180910390f35b34801561033f57600080fd5b5061035d6004803603602081101561035657600080fd5b5035610dd8565b604080516001600160a01b039092168252519081900360200190f35b34801561038557600080fd5b506103b26004803603604081101561039c57600080fd5b506001600160a01b038135169060200135610e3a565b005b3480156103c057600080fd5b506103e7600480360360208110156103d757600080fd5b50356001600160a01b0316610f15565b60408051918252519081900360200190f35b34801561040557600080fd5b506103e76110cd565b34801561041a57600080fd5b506103e76110d3565b34801561042f57600080fd5b506103b26004803603606081101561044657600080fd5b506001600160a01b0381351690602081013590604001356110e4565b34801561046e57600080fd5b506103b26004803603606081101561048557600080fd5b506001600160a01b038135811691602081013590911690604001356111e1565b3480156104b157600080fd5b506103e7600480360360408110156104c857600080fd5b506001600160a01b038135169060200135611238565b3480156104ea57600080fd5b506103b26004803603602081101561050157600080fd5b50356001600160a01b0316611269565b34801561051d57600080fd5b506103b26004803603606081101561053457600080fd5b506001600160a01b03813581169160208101359091169060400135611317565b34801561056057600080fd5b506103b26004803603602081101561057757600080fd5b5035611332565b34801561058a57600080fd5b506103e7600480360360208110156105a157600080fd5b5035611391565b3480156105b457600080fd5b506103b2600480360360808110156105cb57600080fd5b81359190810190604081016020820135600160201b8111156105ec57600080fd5b8201836020820111156105fe57600080fd5b803590602001918460018302840111600160201b8311171561061f57600080fd5b919390929091602081019035600160201b81111561063c57600080fd5b82018360208201111561064e57600080fd5b803590602001918460018302840111600160201b8311171561066f57600080fd5b9193509150356113ad565b34801561068657600080fd5b506102956004803603602081101561069d57600080fd5b50356001600160a01b0316611532565b3480156106b957600080fd5b5061035d600480360360208110156106d057600080fd5b5035611547565b3480156106e357600080fd5b50610295600480360360208110156106fa57600080fd5b50356001600160a01b0316611575565b34801561071657600080fd5b506102be61158a565b6103b26004803603604081101561073557600080fd5b50803590602001356001600160a01b03166115eb565b34801561075757600080fd5b506103e76004803603602081101561076e57600080fd5b50356001600160a01b03166116f7565b34801561078a57600080fd5b506103e7600480360360208110156107a157600080fd5b50356001600160a01b031661175f565b3480156107bd57600080fd5b5061035d611771565b3480156107d257600080fd5b506103b2600480360360208110156107e957600080fd5b50356001600160a01b0316611780565b34801561080557600080fd5b5061082c6004803603602081101561081c57600080fd5b50356001600160a01b031661182d565b60408051968752602087019590955285850193909352606085019190915215156080840152151560a0830152519081900360c00190f35b34801561086f57600080fd5b506102956004803603602081101561088657600080fd5b50356001600160a01b0316611868565b3480156108a257600080fd5b5061035d600480360360208110156108b957600080fd5b50356001600160a01b031661187d565b3480156108d557600080fd5b506103b2600480360360608110156108ec57600080fd5b810190602081018135600160201b81111561090657600080fd5b82018360208201111561091857600080fd5b803590602001918460018302840111600160201b8311171561093957600080fd5b919350915080359060200135611898565b34801561095657600080fd5b506102be6119be565b34801561096b57600080fd5b506103b2611a1f565b34801561098057600080fd5b506103b26004803603604081101561099757600080fd5b506001600160a01b0381351690602001351515611ab1565b3480156109bb57600080fd5b506103e7600480360360408110156109d257600080fd5b50803590602001356001600160a01b0316611bb6565b3480156109f457600080fd5b506103b260048036036020811015610a0b57600080fd5b50356001600160a01b0316611d20565b348015610a2757600080fd5b506103b260048036036080811015610a3e57600080fd5b6001600160a01b03823581169260208101359091169160408201359190810190608081016060820135600160201b811115610a7857600080fd5b820183602082011115610a8a57600080fd5b803590602001918460018302840111600160201b83111715610aab57600080fd5b91908080601f016020809104026020016040519081016040528093929190818152602001838380828437600092019190915250929550611dec945050505050565b348015610af857600080fd5b506103e7611e44565b348015610b0d57600080fd5b506102be60048036036020811015610b2457600080fd5b5035611e4a565b348015610b3757600080fd5b506103b260048036036060811015610b4e57600080fd5b506001600160a01b038135811691602081013590911690604001356120f1565b348015610b7a57600080fd5b5061029560048036036020811015610b9157600080fd5b50356001600160a01b0316612386565b348015610bad57600080fd5b506103e761239b565b348015610bc257600080fd5b506103b260048036036080811015610bd957600080fd5b810190602081018135600160201b811115610bf357600080fd5b820183602082011115610c0557600080fd5b803590602001918460018302840111600160201b83111715610c2657600080fd5b919390929091602081019035600160201b811115610c4357600080fd5b820183602082011115610c5557600080fd5b803590602001918460018302840111600160201b83111715610c7657600080fd5b9193509150803590602001356123a1565b348015610c9357600080fd5b5061029560048036036040811015610caa57600080fd5b506001600160a01b0381358116916020013516612508565b348015610cce57600080fd5b506103b260048036036020811015610ce557600080fd5b5035612536565b348015610cf857600080fd5b506103b260048036036040811015610d0f57600080fd5b508035906020013515156125e2565b6001600160e01b0319811660009081526006602052604090205460ff165b919050565b600c8054604080516020601f6002600019610100600188161502019095169490940493840181900481028201810190925282815260609390929091830182828015610dcd5780601f10610da257610100808354040283529160200191610dcd565b820191906000526020600020905b815481529060010190602001808311610db057829003601f168201915b505050505090505b90565b6000610de382612681565b610e1e5760405162461bcd60e51b815260040180806020018281038252602c815260200180613f6f602c913960400191505060405180910390fd5b506000908152600a60205260409020546001600160a01b031690565b6000610e4582611547565b9050806001600160a01b0316836001600160a01b03161415610e985760405162461bcd60e51b81526004018080602001828103825260218152602001806140256021913960400191505060405180910390fd5b806001600160a01b0316610eaa612694565b6001600160a01b03161480610ecb5750610ecb81610ec6612694565b612508565b610f065760405162461bcd60e51b8152600401808060200182810382526038815260200180613e236038913960400191505060405180910390fd5b610f108383612698565b505050565b3360009081526011602052604081205460ff161515600114610f685760405162461bcd60e51b8152600401808060200182810382526022815260200180613d7d6022913960400191505060405180910390fd5b6001600160a01b03821660009081526017602090815260408083206015835281842080546001600160a01b031916331790556018835281842060195485529092529091208154815560018083015490820155600280830154908201556003808301549082015560048083018054918301805460ff938416151560ff1990911617808255915461010090819004909316151590920261ff00199091161790556005808301805484939261101d9290840191613b84565b50506019805460019081019091556001600160a01b0385166000908152601760205260408120818155918201819055600282018190556003820181905560048201805461ffff191690559091506110776005830182613bd4565b5050600160195403836001600160a01b0316336001600160a01b03167fdbed931b17becd94839a9676e44502c99ae8c0daa39cc833fc8924dcf635ddb360405160405180910390a4505060195460001901919050565b60195481565b60006110df6008612706565b905090565b3360009081526011602052604090205460ff168061111157503360009081526012602052604090205460ff165b61114c5760405162461bcd60e51b8152600401808060200182810382526034815260200180613def6034913960400191505060405180910390fd5b6001600160a01b0383166000908152601860209081526040808320858452909152902060038101805460010190819055600214156111db5760028101805460058301805460018101825560009182526020822001919091559083905560038201819055604051839185917fae8f1c1843d462278a18d86da21362c3c2be9ba1031a16fb568f0bbe2e6b448f9190a35b50505050565b6111f26111ec612694565b82612711565b61122d5760405162461bcd60e51b81526004018080602001828103825260318152602001806140466031913960400191505060405180910390fd5b610f108383836127b5565b6001600160a01b0382166000908152600760205260408120611260908363ffffffff61291316565b90505b92915050565b6001600160a01b03811660009081526016602052604090205481906112bf5760405162461bcd60e51b815260040180806020018281038252602e815260200180613e5b602e913960400191505060405180910390fd5b6112c761291f565b5033600090815260126020526040808220805460ff19166001179055516001600160a01b038416917fc4a03316db53d5a20c35f37af80f6092df39a59057e4a9f2e45c8952a2824e5a91a25b5050565b610f1083838360405180602001604052806000815250611dec565b3360009081526012602052604090205460ff1615156001146113855760405162461bcd60e51b8152600401808060200182810382526028815260200180613d326028913960400191505060405180910390fd5b61138e816129e0565b50565b6000806113a560088463ffffffff612ab916565b509392505050565b3360009081526012602052604090205460ff1615156001146114005760405162461bcd60e51b8152600401808060200182810382526028815260200180613d326028913960400191505060405180910390fd5b336000908152601860209081526040808320898452825291829020825180840185905291820192835260608201879052918791879185918190608001858580828437600081840152601f19601f8201169050808301925050509450505050506040516020818303038152906040528051906020012081600001541480156114e4575083838360405160200180806020018381526020018281038252858582818152602001925080828437600081840152601f19601f820116905080830192505050945050505050604051602081830303815290604052805190602001208160010154145b61151f5760405162461bcd60e51b8152600401808060200182810382526032815260200180613ff36032913960400191505060405180910390fd5b6115293388612ad5565b50505050505050565b60116020526000908152604090205460ff1681565b600061126382604051806060016040528060298152602001613eb3602991396008919063ffffffff612adf16565b60126020526000908152604090205460ff1681565b600f8054604080516020601f6002600019610100600188161502019095169490940493840181900481028201810190925282815260609390929091830182828015610dcd5780601f10610da257610100808354040283529160200191610dcd565b3360009081526014602052604090205460ff16151560011461163e5760405162461bcd60e51b815260040180806020018281038252602681526020018061409f6026913960400191505060405180910390fd5b6001600160a01b03811660009081526018602090815260408083208584529091529020600281015434146116b2576040805162461bcd60e51b8152602060048201526016602482015275135d5cdd081cd95b9908195e1858dd08185b5bdd5b9d60521b604482015290519081900360640190fd5b60048101805461ff0019166101001790556040518390349033907f739a12d28bc58c6e66a2e0275de46cb0c8c6077d6147e73822b01953a14e680b90600090a4505050565b60006001600160a01b03821661173e5760405162461bcd60e51b815260040180806020018281038252602a815260200180613e89602a913960400191505060405180910390fd5b6001600160a01b038216600090815260076020526040902061126390612706565b60166020526000908152604090205481565b601a546001600160a01b031681565b6001600160a01b03811660009081526016602052604090205481906117d65760405162461bcd60e51b815260040180806020018281038252602e815260200180613e5b602e913960400191505060405180910390fd5b6117de61291f565b5033600090815260116020526040808220805460ff19166001179055516001600160a01b038416917f260417376bfb1a5f9fbf2d2d67e9c975b4c4e37088eab604034d6d04cf06c92191a25050565b601760205260009081526040902080546001820154600283015460038401546004909401549293919290919060ff8082169161010090041686565b60146020526000908152604090205460ff1681565b6015602052600090815260409020546001600160a01b031681565b3360009081526014602052604090205460ff1615156001146118eb5760405162461bcd60e51b815260040180806020018281038252602681526020018061409f6026913960400191505060405180910390fd5b3360009081526018602090815260408083206019548452825291829020825180840186905291820192835260608201869052918691869186918190608001858580828437600083820181905260408051601f909301601f19908116909501838103909501835284815282516020938401208b553380835260148452818320805460ff19908116909155601290945290822080549093166001179092558a98509096507f0f17057c058227955304580e8ad3305c4fff882badabd5340cdc5eb55933f3019550935090915050a35050505050565b600d8054604080516020601f6002600019610100600188161502019095169490940493840181900481028201810190925282815260609390929091830182828015610dcd5780601f10610da257610100808354040283529160200191610dcd565b3360009081526011602052604090205460ff161515600114611a725760405162461bcd60e51b8152600401808060200182810382526022815260200180613d7d6022913960400191505060405180910390fd5b33600081815260116020526040808220805460ff19169055517f5d663bb027a27c27341f8b0d6d24d81d85d4572e74d95dfab66e94fc497aaadd9190a2565b611ab9612694565b6001600160a01b0316826001600160a01b03161415611b1f576040805162461bcd60e51b815260206004820152601960248201527f4552433732313a20617070726f766520746f2063616c6c657200000000000000604482015290519081900360640190fd5b80600b6000611b2c612694565b6001600160a01b03908116825260208083019390935260409182016000908120918716808252919093529120805460ff191692151592909217909155611b70612694565b60408051841515815290516001600160a01b0392909216917f17307eab39ab6107e8899845ad3d59bd9653f200f220920489ca2b5937696c319181900360200190a35050565b6000611bc0613bf2565b6001600160a01b0383166000908152601860209081526040808320878452825291829020825160e0810184528154815260018201548184015260028201548185015260038201546060820152600482015460ff8082161515608084015261010090910416151560a08201526005820180548551818602810186019096528086529194929360c08601939290830182828015611c7a57602002820191906000526020600020905b815481526020019060010190808311611c66575b50505050508152505090506000806000806000601060009054906101000a90046001600160a01b03166001600160a01b031663feaf968c6040518163ffffffff1660e01b815260040160a06040518083038186803b158015611cdb57600080fd5b505afa158015611cef573d6000803e3d6000fd5b505050506040513d60a0811015611d0557600080fd5b50602001516040969096015190950298975050505050505050565b3360009081526011602052604090205460ff161515600114611d735760405162461bcd60e51b8152600401808060200182810382526022815260200180613d7d6022913960400191505060405180910390fd5b6001600160a01b0381811660009081526015602052604090205416331415611dcc5760405162461bcd60e51b8152600401808060200182810382526038815260200180613efe6038913960400191505060405180910390fd5b6001600160a01b0316600090815260166020526040902080546001019055565b611dfd611df7612694565b83612711565b611e385760405162461bcd60e51b81526004018080602001828103825260318152602001806140466031913960400191505060405180910390fd5b6111db84848484612af6565b601b5481565b6060611e5582612681565b611e905760405162461bcd60e51b815260040180806020018281038252602f815260200180613fc4602f913960400191505060405180910390fd5b6000828152600e602090815260409182902080548351601f6002600019610100600186161502019093169290920491820184900484028101840190945280845260609392830182828015611f255780601f10611efa57610100808354040283529160200191611f25565b820191906000526020600020905b815481529060010190602001808311611f0857829003601f168201915b5050600f5493945050505060026000196101006001841615020190911604611f4e579050610d3c565b80511561201f57600f816040516020018083805460018160011615610100020316600290048015611fb65780601f10611f94576101008083540402835291820191611fb6565b820191906000526020600020905b815481529060010190602001808311611fa2575b5050825160208401908083835b60208310611fe25780518252601f199092019160209182019101611fc3565b6001836020036101000a03801982511681845116808217855250505050505090500192505050604051602081830303815290604052915050610d3c565b600f61202a84612b48565b60405160200180838054600181600116156101000203166002900480156120885780601f10612066576101008083540402835291820191612088565b820191906000526020600020905b815481529060010190602001808311612074575b5050825160208401908083835b602083106120b45780518252601f199092019160209182019101612095565b6001836020036101000a03801982511681845116808217855250505050505090500192505050604051602081830303815290604052915050919050565b3360009081526011602052604090205460ff1615156001146121445760405162461bcd60e51b8152600401808060200182810382526022815260200180613d7d6022913960400191505060405180910390fd5b6001600160a01b03831660009081526018602090815260408083208484529091529020600481015460ff166121c0576040805162461bcd60e51b815260206004820152601d60248201527f4f776e6572206d757374206861766520617070726f7665642073616c65000000604482015290519081900360640190fd5b6004810154610100900460ff166122085760405162461bcd60e51b8152600401808060200182810382526039815260200180613f366039913960400191505060405180910390fd5b612213848484611317565b60028101546040516001600160a01b0386169180156108fc02916000818181858888f1935050505015801561224c573d6000803e3d6000fd5b506004818101805461ffff191681556001600160a01b03851660009081526018602090815260408083208784529091529020835481556001808501549082015560028085015490820155600380850154908201558154928101805460ff191660ff948516151517808255925461ff0019909316610100938490049094161515909202929092179055600580830180548493926122eb9290840191613b84565b5050506001600160a01b0384166000908152601860209081526040808320858452909152812081815560018101829055600281018290556003810182905560048101805461ffff19169055906123446005830182613bd4565b505050506001600160a01b0390811660009081526014602090815260408083208054600160ff1991821617909155949093168252601290522080549091169055565b60136020526000908152604090205460ff1681565b601c5481565b3360009081526012602052604090205460ff1615156001146123f45760405162461bcd60e51b8152600401808060200182810382526028815260200180613d326028913960400191505060405180910390fd5b3360009081526017602090815260409182902082518084018690529182019283526060820188905291889188918691819060800185858082843760008382015260408051601f909201601f19908116909401828103909401825283815281516020928301208a558084018c9052908301908152606083018c90528c97508b96508a9550935083925050608001858580828437600083820181905260408051601f909301601f199081169095018381039095018352849052815160209092019190912060018a0155600289018a905560048901805461ffff191690558997503396507f061780c73ddb20753c4ac9776b2c6e272e2a3edcf51cf578d6cc34e1503720099550935090915050a350505050505050565b6001600160a01b039182166000908152600b6020908152604080832093909416825291909152205460ff1690565b3360009081526012602052604090205460ff1615156001146125895760405162461bcd60e51b8152600401808060200182810382526028815260200180613d326028913960400191505060405180910390fd5b33600081815260186020908152604080832085845290915280822060048101805460ff1916600117905590519092849290917ed797bd7aa65a2d60ac45f84f5124b1a6ece5e2c968edbaf607d411d1b41aad9190a35050565b60008281526005602052604090205482906001600160a01b031633146126395760405162461bcd60e51b81526004018080602001828103825260288152602001806140776028913960400191505060405180910390fd5b60008181526005602052604080822080546001600160a01b03191690555182917f7cc135e0cebb02c3480ae5d74d377283180a2601f8f644edf7987b009316c63a91a2505050565b600061126360088363ffffffff612c0c16565b3390565b6000818152600a6020526040902080546001600160a01b0319166001600160a01b03841690811790915581906126cd82611547565b6001600160a01b03167f8c5be1e5ebec7d5bd14f71427d1e84f3dd0314c0f7b2291e5b200ac8c7c3b92560405160405180910390a45050565b600061126382612c18565b600061271c82612681565b6127575760405162461bcd60e51b815260040180806020018281038252602c815260200180613dc3602c913960400191505060405180910390fd5b600061276283611547565b9050806001600160a01b0316846001600160a01b0316148061279d5750836001600160a01b031661279284610dd8565b6001600160a01b0316145b806127ad57506127ad8185612508565b949350505050565b826001600160a01b03166127c882611547565b6001600160a01b03161461280d5760405162461bcd60e51b8152600401808060200182810382526029815260200180613f9b6029913960400191505060405180910390fd5b6001600160a01b0382166128525760405162461bcd60e51b8152600401808060200182810382526024815260200180613d9f6024913960400191505060405180910390fd5b61285d838383610f10565b612868600082612698565b6001600160a01b0383166000908152600760205260409020612890908263ffffffff612c1c16565b506001600160a01b03821660009081526007602052604090206128b9908263ffffffff612c2816565b506128cc6008828463ffffffff612c3416565b5080826001600160a01b0316846001600160a01b03167fddf252ad1be2c89b69c2b068fc378daa952ba7f163c4a11628f55a4df523b3ef60405160405180910390a4505050565b60006112608383612c4a565b6000612929613c30565b601b5461293e9030637eb44c8560e11b612cae565b905061297f6040518060400160405280600381526020016219d95d60ea1b8152506040518060200160405280600081525083612cd99092919063ffffffff16565b6129bf604051806040016040528060048152602001630e0c2e8d60e31b8152506040518060200160405280600081525083612cd99092919063ffffffff16565b601a54601c546129da916001600160a01b0316908390612d03565b91505090565b60006129eb82611547565b90506129f981600084610f10565b612a04600083612698565b6000828152600e60205260409020546002600019610100600184161502019091160415612a42576000828152600e60205260408120612a4291613c65565b6001600160a01b0381166000908152600760205260409020612a6a908363ffffffff612c1c16565b50612a7c60088363ffffffff612eda16565b5060405182906000906001600160a01b038416907fddf252ad1be2c89b69c2b068fc378daa952ba7f163c4a11628f55a4df523b3ef908390a45050565b6000808080612ac88686612ee6565b9097909650945050505050565b6113138282612f61565b6000612aec848484612f7b565b90505b9392505050565b612b018484846127b5565b612b0d84848484613045565b6111db5760405162461bcd60e51b8152600401808060200182810382526032815260200180613d006032913960400191505060405180910390fd5b606081612b6d57506040805180820190915260018152600360fc1b6020820152610d3c565b8160005b8115612b8557600101600a82049150612b71565b6060816040519080825280601f01601f191660200182016040528015612bb2576020820181803883390190505b50859350905060001982015b8315612c0357600a840660300160f81b82828060019003935081518110612be157fe5b60200101906001600160f81b031916908160001a905350600a84049350612bbe565b50949350505050565b60006112608383613280565b5490565b60006112608383613298565b6000611260838361335e565b6000612aec84846001600160a01b0385166133a8565b81546000908210612c8c5760405162461bcd60e51b8152600401808060200182810382526022815260200180613cde6022913960400191505060405180910390fd5b826000018281548110612c9b57fe5b9060005260206000200154905092915050565b612cb6613c30565b612cbe613c30565b612cd08186868663ffffffff61343f16565b95945050505050565b6080830151612cee908363ffffffff61347c16565b6080830151610f10908263ffffffff61347c16565b6004546040805130606090811b60208084019190915260348084018690528451808503909101815260549093018452825192810192909220908601939093526000838152600590915281812080546001600160a01b0319166001600160a01b038816179055905182917fb5e6e01e79f91267dc17b4e6314d5d4d03593d2ceee0fbb452b750bd70ea5af991a26002546001600160a01b0316634000aea08584612dab87613499565b6040518463ffffffff1660e01b815260040180846001600160a01b03166001600160a01b0316815260200183815260200180602001828103825283818151815260200191508051906020019080838360005b83811015612e15578181015183820152602001612dfd565b50505050905090810190601f168015612e425780820380516001836020036101000a031916815260200191505b50945050505050602060405180830381600087803b158015612e6357600080fd5b505af1158015612e77573d6000803e3d6000fd5b505050506040513d6020811015612e8d57600080fd5b5051612eca5760405162461bcd60e51b8152600401808060200182810382526023815260200180613d5a6023913960400191505060405180910390fd5b6004805460010190559392505050565b600061126083836135d9565b815460009081908310612f2a5760405162461bcd60e51b8152600401808060200182810382526022815260200180613edc6022913960400191505060405180910390fd5b6000846000018481548110612f3b57fe5b906000526020600020906002020190508060000154816001015492509250509250929050565b6113138282604051806020016040528060008152506136ad565b600082815260018401602052604081205482816130165760405162461bcd60e51b81526004018080602001828103825283818151815260200191508051906020019080838360005b83811015612fdb578181015183820152602001612fc3565b50505050905090810190601f1680156130085780820380516001836020036101000a031916815260200191505b509250505060405180910390fd5b5084600001600182038154811061302957fe5b9060005260206000209060020201600101549150509392505050565b6000613059846001600160a01b03166136ff565b613065575060016127ad565b600060606001600160a01b038616630a85bd0160e11b613083612694565b89888860405160240180856001600160a01b03166001600160a01b03168152602001846001600160a01b03166001600160a01b0316815260200183815260200180602001828103825283818151815260200191508051906020019080838360005b838110156130fc5781810151838201526020016130e4565b50505050905090810190601f1680156131295780820380516001836020036101000a031916815260200191505b5060408051601f198184030181529181526020820180516001600160e01b03166001600160e01b0319909a16999099178952518151919890975087965094509250829150849050835b602083106131915780518252601f199092019160209182019101613172565b6001836020036101000a0380198251168184511680821785525050505050509050019150506000604051808303816000865af19150503d80600081146131f3576040519150601f19603f3d011682016040523d82523d6000602084013e6131f8565b606091505b509150915081613249578051156132125780518082602001fd5b60405162461bcd60e51b8152600401808060200182810382526032815260200180613d006032913960400191505060405180910390fd5b600081806020019051602081101561326057600080fd5b50516001600160e01b031916630a85bd0160e11b1493506127ad92505050565b60009081526001919091016020526040902054151590565b6000818152600183016020526040812054801561335457835460001980830191908101906000908790839081106132cb57fe5b90600052602060002001549050808760000184815481106132e857fe5b60009182526020808320909101929092558281526001898101909252604090209084019055865487908061331857fe5b60019003818190600052602060002001600090559055866001016000878152602001908152602001600020600090556001945050505050611263565b6000915050611263565b600061336a8383613280565b6133a057508154600181810184556000848152602080822090930184905584548482528286019093526040902091909155611263565b506000611263565b60008281526001840160205260408120548061340d575050604080518082018252838152602080820184815286546001818101895560008981528481209551600290930290950191825591519082015586548684528188019092529290912055612aef565b8285600001600183038154811061342057fe5b9060005260206000209060020201600101819055506000915050612aef565b613447613c30565b6134578560800151610100613738565b50509183526001600160a01b031660208301526001600160e01b031916604082015290565b6134898260038351613772565b610f10828263ffffffff61387c16565b6060634042994660e01b6000808460000151856020015186604001518760600151600189608001516000015160405160240180896001600160a01b03166001600160a01b03168152602001888152602001878152602001866001600160a01b03166001600160a01b03168152602001856001600160e01b0319166001600160e01b031916815260200184815260200183815260200180602001828103825283818151815260200191508051906020019080838360005b8381101561356757818101518382015260200161354f565b50505050905090810190601f1680156135945780820380516001836020036101000a031916815260200191505b5060408051601f198184030181529190526020810180516001600160e01b03166001600160e01b0319909d169c909c17909b5250989950505050505050505050919050565b60008181526001830160205260408120548015613354578354600019808301919081019060009087908390811061360c57fe5b906000526020600020906002020190508087600001848154811061362c57fe5b60009182526020808320845460029093020191825560019384015491840191909155835482528983019052604090209084019055865487908061366b57fe5b60008281526020808220600260001990940193840201828155600190810183905592909355888152898201909252604082209190915594506112639350505050565b6136b78383613896565b6136c46000848484613045565b610f105760405162461bcd60e51b8152600401808060200182810382526032815260200180613d006032913960400191505060405180910390fd5b6000813f7fc5d2460186f7233c927e7db2dcc703c0e500b653ca82273b7bfad8045d85a4708181148015906127ad575050151592915050565b613740613ca9565b60208206156137555760208206602003820191505b506020828101829052604080518085526000815290920101905290565b60178111613799576137938360e0600585901b16831763ffffffff6139d016565b50610f10565b60ff81116137cf576137bc836018611fe0600586901b161763ffffffff6139d016565b506137938382600163ffffffff6139e816565b61ffff8111613806576137f3836019611fe0600586901b161763ffffffff6139d016565b506137938382600263ffffffff6139e816565b63ffffffff811161383f5761382c83601a611fe0600586901b161763ffffffff6139d016565b506137938382600463ffffffff6139e816565b67ffffffffffffffff8111610f105761386983601b611fe0600586901b161763ffffffff6139d016565b506111db8382600863ffffffff6139e816565b613884613ca9565b61126083846000015151848551613a01565b6001600160a01b0382166138f1576040805162461bcd60e51b815260206004820181905260248201527f4552433732313a206d696e7420746f20746865207a65726f2061646472657373604482015290519081900360640190fd5b6138fa81612681565b1561394c576040805162461bcd60e51b815260206004820152601c60248201527f4552433732313a20746f6b656e20616c7265616479206d696e74656400000000604482015290519081900360640190fd5b61395860008383610f10565b6001600160a01b0382166000908152600760205260409020613980908263ffffffff612c2816565b506139936008828463ffffffff612c3416565b5060405181906001600160a01b038416906000907fddf252ad1be2c89b69c2b068fc378daa952ba7f163c4a11628f55a4df523b3ef908290a45050565b6139d8613ca9565b6112608384600001515184613aad565b6139f0613ca9565b612aec848560000151518585613af8565b613a09613ca9565b8251821115613a1757600080fd5b84602001518285011115613a4157613a4185613a398760200151878601613b56565b600202613b6d565b600080865180518760208301019350808887011115613a605787860182525b505050602084015b60208410613a875780518252601f199093019260209182019101613a68565b51815160001960208690036101000a019081169019919091161790525083949350505050565b613ab5613ca9565b83602001518310613ad157613ad1848560200151600202613b6d565b835180516020858301018481535080851415613aee576001810182525b5093949350505050565b613b00613ca9565b84602001518483011115613b1d57613b1d85858401600202613b6d565b60006001836101000a039050855183868201018583198251161781525080518487011115613b4b5783860181525b509495945050505050565b600081831115613b67575081611263565b50919050565b8151613b798383613738565b506111db838261387c565b828054828255906000526020600020908101928215613bc45760005260206000209182015b82811115613bc4578254825591600101919060010190613ba9565b50613bd0929150613cc3565b5090565b508054600082559060005260206000209081019061138e9190613cc3565b6040805160e08101825260008082526020820181905291810182905260608082018390526080820183905260a082019290925260c081019190915290565b6040805160a081018252600080825260208201819052918101829052606081019190915260808101613c60613ca9565b905290565b50805460018160011615610100020316600290046000825580601f10613c8b575061138e565b601f01602090049060005260206000209081019061138e9190613cc3565b604051806040016040528060608152602001600081525090565b610dd591905b80821115613bd05760008155600101613cc956fe456e756d657261626c655365743a20696e646578206f7574206f6620626f756e64734552433732313a207472616e7366657220746f206e6f6e20455243373231526563656976657220696d706c656d656e7465724d7573742062652070726f7065727479206f776e657220746f2063616c6c2066756e6374696f6e2e756e61626c6520746f207472616e73666572416e6443616c6c20746f206f7261636c654d75737420626520766572696669656420746f2063616c6c2066756e6374696f6e2e4552433732313a207472616e7366657220746f20746865207a65726f20616464726573734552433732313a206f70657261746f7220717565727920666f72206e6f6e6578697374656e7420746f6b656e4d75737420626520656974686572206f776e6572206f72206167656e7420746f2063616c6c20746869732066756e6374696f6e2e4552433732313a20617070726f76652063616c6c6572206973206e6f74206f776e6572206e6f7220617070726f76656420666f7220616c6c4d7573742068617665206167656e7420766572696679206265666f72652063616c6c696e672066756e6374696f6e4552433732313a2062616c616e636520717565727920666f7220746865207a65726f20616464726573734552433732313a206f776e657220717565727920666f72206e6f6e6578697374656e7420746f6b656e456e756d657261626c654d61703a20696e646578206f7574206f6620626f756e64734167656e74207468617420726567697374657265642070726f70657274792063616e6e6f7420616c736f20617070726f7665206f776e65725061796d656e7420746f20636f6e7472616374206d757374206265207265636569766564206265666f72652066756e6374696f6e2063616c6c4552433732313a20617070726f76656420717565727920666f72206e6f6e6578697374656e7420746f6b656e4552433732313a207472616e73666572206f6620746f6b656e2074686174206973206e6f74206f776e4552433732314d657461646174613a2055524920717565727920666f72206e6f6e6578697374656e7420746f6b656e46756e6374696f6e2063616c6c657220646f6573206e6f74206f776e2070726f7065727479207769746820746861742049444552433732313a20617070726f76616c20746f2063757272656e74206f776e65724552433732313a207472616e736665722063616c6c6572206973206e6f74206f776e6572206e6f7220617070726f766564536f75726365206d75737420626520746865206f7261636c65206f662074686520726571756573744f6e6c79206e6577206f776e65722063616e2063616c6c20746869732066756e6374696f6e2ea2646970667358221220560c432e3933c365ed9ac05249bdd6f3aed0100eafd48adb20426fce1125560a64736f6c63430006020033",
  "linkReferences": {},
  "deployedLinkReferences": {}
}