{
  "_format": "hh-sol-artifact-1",
  "contractName": "Bridge",
  "sourceName": "contracts/Bridge.sol",
  "abi": [
    {
      "anonymous": false,
      "inputs": [
        {
          "indexed": true,
          "internalType": "address",
          "name": "newAgentApproved",
          "type": "address"
        }
      ],
      "name": "AgentApproved",
      "type": "event"
    },
    {
      "anonymous": false,
      "inputs": [
        {
          "indexed": true,
          "internalType": "address",
          "name": "agent",
          "type": "address"
        },
        {
          "indexed": true,
          "internalType": "address",
          "name": "propertyOwner",
          "type": "address"
        },
        {
          "indexed": true,
          "internalType": "uint256",
          "name": "tokenId",
          "type": "uint256"
        }
      ],
      "name": "AgentApprovedProperty",
      "type": "event"
    },
    {
      "anonymous": false,
      "inputs": [
        {
          "indexed": true,
          "internalType": "address",
          "name": "owner",
          "type": "address"
        },
        {
          "indexed": true,
          "internalType": "address",
          "name": "approved",
          "type": "address"
        },
        {
          "indexed": true,
          "internalType": "uint256",
          "name": "tokenId",
          "type": "uint256"
        }
      ],
      "name": "Approval",
      "type": "event"
    },
    {
      "anonymous": false,
      "inputs": [
        {
          "indexed": true,
          "internalType": "address",
          "name": "owner",
          "type": "address"
        },
        {
          "indexed": true,
          "internalType": "address",
          "name": "operator",
          "type": "address"
        },
        {
          "indexed": false,
          "internalType": "bool",
          "name": "approved",
          "type": "bool"
        }
      ],
      "name": "ApprovalForAll",
      "type": "event"
    },
    {
      "anonymous": false,
      "inputs": [
        {
          "indexed": true,
          "internalType": "address",
          "name": "revokedLicenseAddress",
          "type": "address"
        }
      ],
      "name": "LicenseRevoked",
      "type": "event"
    },
    {
      "anonymous": false,
      "inputs": [
        {
          "indexed": true,
          "internalType": "address",
          "name": "newOwnerApproved",
          "type": "address"
        }
      ],
      "name": "OwnerApproved",
      "type": "event"
    },
    {
      "anonymous": false,
      "inputs": [
        {
          "indexed": true,
          "internalType": "address",
          "name": "newOwner",
          "type": "address"
        },
        {
          "indexed": true,
          "internalType": "uint256",
          "name": "tokenId",
          "type": "uint256"
        }
      ],
      "name": "OwnerChanged",
      "type": "event"
    },
    {
      "anonymous": false,
      "inputs": [
        {
          "indexed": true,
          "internalType": "address",
          "name": "buyer",
          "type": "address"
        },
        {
          "indexed": true,
          "internalType": "uint256",
          "name": "paymentAmount",
          "type": "uint256"
        },
        {
          "indexed": true,
          "internalType": "uint256",
          "name": "tokenId",
          "type": "uint256"
        }
      ],
      "name": "PaymentRecieved",
      "type": "event"
    },
    {
      "anonymous": false,
      "inputs": [
        {
          "indexed": true,
          "internalType": "uint256",
          "name": "tokenId",
          "type": "uint256"
        },
        {
          "indexed": true,
          "internalType": "uint256",
          "name": "newPrice",
          "type": "uint256"
        }
      ],
      "name": "PropertyPriceChanged",
      "type": "event"
    },
    {
      "anonymous": false,
      "inputs": [
        {
          "indexed": true,
          "internalType": "address",
          "name": "registeringAddress",
          "type": "address"
        },
        {
          "indexed": true,
          "internalType": "uint256",
          "name": "originalPrice",
          "type": "uint256"
        }
      ],
      "name": "PropertyRegistered",
      "type": "event"
    },
    {
      "anonymous": false,
      "inputs": [
        {
          "indexed": true,
          "internalType": "address",
          "name": "owner",
          "type": "address"
        },
        {
          "indexed": true,
          "internalType": "uint256",
          "name": "tokenId",
          "type": "uint256"
        }
      ],
      "name": "SaleApproved",
      "type": "event"
    },
    {
      "anonymous": false,
      "inputs": [
        {
          "indexed": true,
          "internalType": "address",
          "name": "from",
          "type": "address"
        },
        {
          "indexed": true,
          "internalType": "address",
          "name": "to",
          "type": "address"
        },
        {
          "indexed": true,
          "internalType": "uint256",
          "name": "tokenId",
          "type": "uint256"
        }
      ],
      "name": "Transfer",
      "type": "event"
    },
    {
      "inputs": [
        {
          "internalType": "address",
          "name": "toBeApproved",
          "type": "address"
        }
      ],
      "name": "agentApproval",
      "outputs": [],
      "stateMutability": "nonpayable",
      "type": "function"
    },
    {
      "inputs": [
        {
          "internalType": "address",
          "name": "to",
          "type": "address"
        },
        {
          "internalType": "uint256",
          "name": "tokenId",
          "type": "uint256"
        }
      ],
      "name": "approve",
      "outputs": [],
      "stateMutability": "nonpayable",
      "type": "function"
    },
    {
      "inputs": [
        {
          "internalType": "uint256",
          "name": "_tokenId",
          "type": "uint256"
        }
      ],
      "name": "approveForSaleByOwner",
      "outputs": [],
      "stateMutability": "nonpayable",
      "type": "function"
    },
    {
      "inputs": [
        {
          "internalType": "bytes32",
          "name": "_agentName",
          "type": "bytes32"
        },
        {
          "internalType": "string",
          "name": "_url",
          "type": "string"
        },
        {
          "internalType": "string",
          "name": "_namePath",
          "type": "string"
        },
        {
          "internalType": "address",
          "name": "_potentialAgent",
          "type": "address"
        }
      ],
      "name": "approveLicense",
      "outputs": [],
      "stateMutability": "nonpayable",
      "type": "function"
    },
    {
      "inputs": [
        {
          "internalType": "bytes32",
          "name": "_ownerName",
          "type": "bytes32"
        },
        {
          "internalType": "string",
          "name": "_url",
          "type": "string"
        },
        {
          "internalType": "string",
          "name": "_namePath",
          "type": "string"
        },
        {
          "internalType": "address",
          "name": "_potentialOwner",
          "type": "address"
        }
      ],
      "name": "approveOwner",
      "outputs": [],
      "stateMutability": "nonpayable",
      "type": "function"
    },
    {
      "inputs": [
        {
          "internalType": "address",
          "name": "_propertyOwner",
          "type": "address"
        }
      ],
      "name": "approveProperty",
      "outputs": [
        {
          "internalType": "uint256",
          "name": "",
          "type": "uint256"
        }
      ],
      "stateMutability": "nonpayable",
      "type": "function"
    },
    {
      "inputs": [
        {
          "internalType": "address",
          "name": "",
          "type": "address"
        }
      ],
      "name": "approved",
      "outputs": [
        {
          "internalType": "bool",
          "name": "",
          "type": "bool"
        }
      ],
      "stateMutability": "view",
      "type": "function"
    },
    {
      "inputs": [
        {
          "internalType": "address",
          "name": "",
          "type": "address"
        }
      ],
      "name": "awaitingApproval",
      "outputs": [
        {
          "internalType": "bytes32",
          "name": "propertyOwner",
          "type": "bytes32"
        },
        {
          "internalType": "bytes32",
          "name": "propertyAddress",
          "type": "bytes32"
        },
        {
          "internalType": "uint256",
          "name": "currentPrice",
          "type": "uint256"
        },
        {
          "internalType": "uint256",
          "name": "changePriceCount",
          "type": "uint256"
        },
        {
          "internalType": "bool",
          "name": "saleApproved",
          "type": "bool"
        },
        {
          "internalType": "bool",
          "name": "paid",
          "type": "bool"
        }
      ],
      "stateMutability": "view",
      "type": "function"
    },
    {
      "inputs": [
        {
          "internalType": "address",
          "name": "owner",
          "type": "address"
        }
      ],
      "name": "balanceOf",
      "outputs": [
        {
          "internalType": "uint256",
          "name": "",
          "type": "uint256"
        }
      ],
      "stateMutability": "view",
      "type": "function"
    },
    {
      "inputs": [],
      "name": "baseURI",
      "outputs": [
        {
          "internalType": "string",
          "name": "",
          "type": "string"
        }
      ],
      "stateMutability": "view",
      "type": "function"
    },
    {
      "inputs": [
        {
          "internalType": "uint256",
          "name": "_tokenId",
          "type": "uint256"
        }
      ],
      "name": "burn",
      "outputs": [],
      "stateMutability": "nonpayable",
      "type": "function"
    },
    {
      "inputs": [
        {
          "internalType": "address",
          "name": "propertyOwner",
          "type": "address"
        },
        {
          "internalType": "uint256",
          "name": "_tokenId",
          "type": "uint256"
        },
        {
          "internalType": "uint256",
          "name": "newPrice",
          "type": "uint256"
        }
      ],
      "name": "changeCurrentPrice",
      "outputs": [],
      "stateMutability": "nonpayable",
      "type": "function"
    },
    {
      "inputs": [
        {
          "internalType": "string",
          "name": "newOwnerName",
          "type": "string"
        },
        {
          "internalType": "string",
          "name": "propertyAddress",
          "type": "string"
        },
        {
          "internalType": "uint256",
          "name": "salt",
          "type": "uint256"
        },
        {
          "internalType": "uint256",
          "name": "_tokenId",
          "type": "uint256"
        }
      ],
      "name": "changeOwner",
      "outputs": [],
      "stateMutability": "nonpayable",
      "type": "function"
    },
    {
      "inputs": [
        {
          "internalType": "uint256",
          "name": "priceInEther",
          "type": "uint256"
        }
      ],
      "name": "checkHomePriceInUsd",
      "outputs": [],
      "stateMutability": "view",
      "type": "function"
    },
    {
      "inputs": [
        {
          "internalType": "uint256",
          "name": "tokenId",
          "type": "uint256"
        }
      ],
      "name": "getApproved",
      "outputs": [
        {
          "internalType": "address",
          "name": "",
          "type": "address"
        }
      ],
      "stateMutability": "view",
      "type": "function"
    },
    {
      "inputs": [],
      "name": "initialize",
      "outputs": [],
      "stateMutability": "nonpayable",
      "type": "function"
    },
    {
      "inputs": [
        {
          "internalType": "address",
          "name": "owner",
          "type": "address"
        },
        {
          "internalType": "address",
          "name": "operator",
          "type": "address"
        }
      ],
      "name": "isApprovedForAll",
      "outputs": [
        {
          "internalType": "bool",
          "name": "",
          "type": "bool"
        }
      ],
      "stateMutability": "view",
      "type": "function"
    },
    {
      "inputs": [
        {
          "internalType": "address",
          "name": "",
          "type": "address"
        }
      ],
      "name": "licensed",
      "outputs": [
        {
          "internalType": "bool",
          "name": "",
          "type": "bool"
        }
      ],
      "stateMutability": "view",
      "type": "function"
    },
    {
      "inputs": [],
      "name": "linkQueries",
      "outputs": [
        {
          "internalType": "contract BridgeLinkQueries",
          "name": "",
          "type": "address"
        }
      ],
      "stateMutability": "view",
      "type": "function"
    },
    {
      "inputs": [
        {
          "internalType": "string",
          "name": "_propertyOwner",
          "type": "string"
        },
        {
          "internalType": "string",
          "name": "_propertyAddress",
          "type": "string"
        },
        {
          "internalType": "uint256",
          "name": "_tokenId",
          "type": "uint256"
        },
        {
          "internalType": "uint256",
          "name": "salt",
          "type": "uint256"
        }
      ],
      "name": "mintProperty",
      "outputs": [],
      "stateMutability": "nonpayable",
      "type": "function"
    },
    {
      "inputs": [],
      "name": "name",
      "outputs": [
        {
          "internalType": "string",
          "name": "",
          "type": "string"
        }
      ],
      "stateMutability": "view",
      "type": "function"
    },
    {
      "inputs": [
        {
          "internalType": "address",
          "name": "",
          "type": "address"
        }
      ],
      "name": "newOwner",
      "outputs": [
        {
          "internalType": "bool",
          "name": "",
          "type": "bool"
        }
      ],
      "stateMutability": "view",
      "type": "function"
    },
    {
      "inputs": [
        {
          "internalType": "address",
          "name": "",
          "type": "address"
        }
      ],
      "name": "numAgentApprovals",
      "outputs": [
        {
          "internalType": "uint256",
          "name": "",
          "type": "uint256"
        }
      ],
      "stateMutability": "view",
      "type": "function"
    },
    {
      "inputs": [
        {
          "internalType": "address",
          "name": "",
          "type": "address"
        }
      ],
      "name": "owner",
      "outputs": [
        {
          "internalType": "bool",
          "name": "",
          "type": "bool"
        }
      ],
      "stateMutability": "view",
      "type": "function"
    },
    {
      "inputs": [
        {
          "internalType": "uint256",
          "name": "tokenId",
          "type": "uint256"
        }
      ],
      "name": "ownerOf",
      "outputs": [
        {
          "internalType": "address",
          "name": "",
          "type": "address"
        }
      ],
      "stateMutability": "view",
      "type": "function"
    },
    {
      "inputs": [
        {
          "internalType": "uint256",
          "name": "_tokenId",
          "type": "uint256"
        },
        {
          "internalType": "address",
          "name": "propertyOwner",
          "type": "address"
        }
      ],
      "name": "payment",
      "outputs": [],
      "stateMutability": "payable",
      "type": "function"
    },
    {
      "inputs": [
        {
          "internalType": "string",
          "name": "_propertyOwner",
          "type": "string"
        },
        {
          "internalType": "string",
          "name": "_propertyAddress",
          "type": "string"
        },
        {
          "internalType": "uint256",
          "name": "salt",
          "type": "uint256"
        },
        {
          "internalType": "uint256",
          "name": "_currentPrice",
          "type": "uint256"
        },
        {
          "internalType": "address",
          "name": "_propertyOwnerAddr",
          "type": "address"
        }
      ],
      "name": "registerProperty",
      "outputs": [],
      "stateMutability": "nonpayable",
      "type": "function"
    },
    {
      "inputs": [
        {
          "internalType": "address",
          "name": "",
          "type": "address"
        }
      ],
      "name": "registeringAgent",
      "outputs": [
        {
          "internalType": "address",
          "name": "",
          "type": "address"
        }
      ],
      "stateMutability": "view",
      "type": "function"
    },
    {
      "inputs": [],
      "name": "revokeLicense",
      "outputs": [],
      "stateMutability": "nonpayable",
      "type": "function"
    },
    {
      "inputs": [
        {
          "internalType": "address",
          "name": "from",
          "type": "address"
        },
        {
          "internalType": "address",
          "name": "to",
          "type": "address"
        },
        {
          "internalType": "uint256",
          "name": "tokenId",
          "type": "uint256"
        }
      ],
      "name": "safeTransferFrom",
      "outputs": [],
      "stateMutability": "nonpayable",
      "type": "function"
    },
    {
      "inputs": [
        {
          "internalType": "address",
          "name": "from",
          "type": "address"
        },
        {
          "internalType": "address",
          "name": "to",
          "type": "address"
        },
        {
          "internalType": "uint256",
          "name": "tokenId",
          "type": "uint256"
        },
        {
          "internalType": "bytes",
          "name": "_data",
          "type": "bytes"
        }
      ],
      "name": "safeTransferFrom",
      "outputs": [],
      "stateMutability": "nonpayable",
      "type": "function"
    },
    {
      "inputs": [
        {
          "internalType": "address",
          "name": "_from",
          "type": "address"
        },
        {
          "internalType": "address",
          "name": "_to",
          "type": "address"
        },
        {
          "internalType": "uint256",
          "name": "_tokenId",
          "type": "uint256"
        }
      ],
      "name": "sell",
      "outputs": [],
      "stateMutability": "nonpayable",
      "type": "function"
    },
    {
      "inputs": [
        {
          "internalType": "address",
          "name": "operator",
          "type": "address"
        },
        {
          "internalType": "bool",
          "name": "approved",
          "type": "bool"
        }
      ],
      "name": "setApprovalForAll",
      "outputs": [],
      "stateMutability": "nonpayable",
      "type": "function"
    },
    {
      "inputs": [
        {
          "internalType": "bytes4",
          "name": "interfaceId",
          "type": "bytes4"
        }
      ],
      "name": "supportsInterface",
      "outputs": [
        {
          "internalType": "bool",
          "name": "",
          "type": "bool"
        }
      ],
      "stateMutability": "view",
      "type": "function"
    },
    {
      "inputs": [],
      "name": "symbol",
      "outputs": [
        {
          "internalType": "string",
          "name": "",
          "type": "string"
        }
      ],
      "stateMutability": "view",
      "type": "function"
    },
    {
      "inputs": [
        {
          "internalType": "uint256",
          "name": "index",
          "type": "uint256"
        }
      ],
      "name": "tokenByIndex",
      "outputs": [
        {
          "internalType": "uint256",
          "name": "",
          "type": "uint256"
        }
      ],
      "stateMutability": "view",
      "type": "function"
    },
    {
      "inputs": [],
      "name": "tokenId",
      "outputs": [
        {
          "internalType": "uint256",
          "name": "",
          "type": "uint256"
        }
      ],
      "stateMutability": "view",
      "type": "function"
    },
    {
      "inputs": [
        {
          "internalType": "address",
          "name": "owner",
          "type": "address"
        },
        {
          "internalType": "uint256",
          "name": "index",
          "type": "uint256"
        }
      ],
      "name": "tokenOfOwnerByIndex",
      "outputs": [
        {
          "internalType": "uint256",
          "name": "",
          "type": "uint256"
        }
      ],
      "stateMutability": "view",
      "type": "function"
    },
    {
      "inputs": [
        {
          "internalType": "uint256",
          "name": "tokenId",
          "type": "uint256"
        }
      ],
      "name": "tokenURI",
      "outputs": [
        {
          "internalType": "string",
          "name": "",
          "type": "string"
        }
      ],
      "stateMutability": "view",
      "type": "function"
    },
    {
      "inputs": [],
      "name": "totalSupply",
      "outputs": [
        {
          "internalType": "uint256",
          "name": "",
          "type": "uint256"
        }
      ],
      "stateMutability": "view",
      "type": "function"
    },
    {
      "inputs": [
        {
          "internalType": "address",
          "name": "from",
          "type": "address"
        },
        {
          "internalType": "address",
          "name": "to",
          "type": "address"
        },
        {
          "internalType": "uint256",
          "name": "tokenId",
          "type": "uint256"
        }
      ],
      "name": "transferFrom",
      "outputs": [],
      "stateMutability": "nonpayable",
      "type": "function"
    }
  ],
  "bytecode": "0x608060405234801561001057600080fd5b50614f07806100206000396000f3fe6080604052600436106200027e5760003560e01c80636988e9ea1162000157578063983728b511620000c7578063cae270b61162000085578063cae270b61462000777578063d6ac8b4f146200079c578063d8b964e614620007c1578063dc53188714620007e6578063e985e9c5146200080b578063fadc3aa01462000830576200027e565b8063983728b514620006cb578063a22cb46514620006e3578063b34164321462000708578063b88d4fde146200072d578063c87b56dd1462000752576200027e565b80638129fc1c11620001155780638129fc1c1462000618578063845617d514620006305780638595245414620006695780638d512720146200068e57806395d89b4114620006b3576200027e565b80636988e9ea146200057a5780636c0360eb146200059f5780636c0edf8614620005b757806370a0823114620005ce5780637211727814620005f3576200027e565b806323b872dd11620001f35780634f6ccce711620001b15780634f6ccce714620004c15780635fdaf06114620004e65780636352211e146200050b5780636557ee7b1462000530578063666e1b391462000555576200027e565b806323b872dd14620004155780632f745c59146200043a57806342842e0e146200045f57806342966c6814620004845780634c02f68714620004a9576200027e565b806311a0c1a8116200024157806311a0c1a8146200037657806317d70f7c146200039b57806318160ddd14620003b35780631e45656714620003cb578063223e3ed214620003f0576200027e565b806301ffc9a7146200028357806306fdde0314620002c0578063081812fc14620002e7578063095ea7b3146200031b57806311798bd11462000342575b600080fd5b3480156200029057600080fd5b50620002a8620002a23660046200338f565b62000855565b604051620002b7919062003691565b60405180910390f35b348015620002cd57600080fd5b50620002d862000878565b604051620002b7919062003700565b348015620002f457600080fd5b506200030c620003063660046200352a565b62000913565b604051620002b791906200363e565b3480156200032857600080fd5b50620003406200033a3660046200329c565b62000964565b005b3480156200034f57600080fd5b50620003676200036136600462003100565b62000a0c565b604051620002b7919062003f98565b3480156200038357600080fd5b50620003406200039536600462003468565b62000bac565b348015620003a857600080fd5b506200036762000ca6565b348015620003c057600080fd5b506200036762000cac565b348015620003d857600080fd5b5062000340620003ea3660046200352a565b62000cbf565b348015620003fd57600080fd5b50620003406200040f366004620032c9565b62000d49565b3480156200042257600080fd5b50620003406200043436600462003157565b62000e2c565b3480156200044757600080fd5b5062000367620004593660046200329c565b62000e6d565b3480156200046c57600080fd5b50620003406200047e36600462003157565b62000ea0565b3480156200049157600080fd5b5062000340620004a33660046200352a565b62000ebd565b348015620004b657600080fd5b506200030c62000f02565b348015620004ce57600080fd5b5062000367620004e03660046200352a565b62000f11565b348015620004f357600080fd5b50620002a86200050536600462003100565b62000f2f565b3480156200051857600080fd5b506200030c6200052a3660046200352a565b62000f44565b3480156200053d57600080fd5b50620003406200054f366004620032ff565b62000f75565b3480156200056257600080fd5b50620002a86200057436600462003100565b620011c2565b3480156200058757600080fd5b506200034062000599366004620033e6565b620011d7565b348015620005ac57600080fd5b50620002d8620012e6565b62000340620005c836600462003543565b6200134a565b348015620005db57600080fd5b5062000367620005ed36600462003100565b6200140f565b3480156200060057600080fd5b50620003676200061236600462003100565b6200145d565b3480156200062557600080fd5b50620003406200146f565b3480156200063d57600080fd5b50620006556200064f36600462003100565b620015af565b604051620002b7969594939291906200369c565b3480156200067657600080fd5b50620002a86200068836600462003100565b620015ea565b3480156200069b57600080fd5b506200030c620006ad36600462003100565b620015ff565b348015620006c057600080fd5b50620002d86200161a565b348015620006d857600080fd5b50620003406200167e565b348015620006f057600080fd5b5062000340620007023660046200325d565b620016f4565b3480156200071557600080fd5b50620003406200072736600462003100565b620017cd565b3480156200073a57600080fd5b50620003406200074c3660046200319c565b62001861565b3480156200075f57600080fd5b50620002d8620007713660046200352a565b620018a3565b3480156200078457600080fd5b50620003406200079636600462003157565b62001a00565b348015620007a957600080fd5b5062000340620007bb366004620033e6565b62001c6d565b348015620007ce57600080fd5b50620002a8620007e036600462003100565b62001d5f565b348015620007f357600080fd5b506200034062000805366004620032ff565b62001d74565b3480156200081857600080fd5b50620002a86200082a3660046200311e565b62001fc1565b3480156200083d57600080fd5b50620003406200084f3660046200352a565b62001fef565b6001600160e01b0319811660009081526033602052604090205460ff165b919050565b606a8054604080516020601f6002600019610100600188161502019095169490940493840181900481028201810190925282815260609390929091830182828015620009085780601f10620008dc5761010080835404028352916020019162000908565b820191906000526020600020905b815481529060010190602001808311620008ea57829003601f168201915b505050505090505b90565b600062000920826200207f565b620009485760405162461bcd60e51b81526004016200093f9062003c84565b60405180910390fd5b506000908152606860205260409020546001600160a01b031690565b6000620009718262000f44565b9050806001600160a01b0316836001600160a01b03161415620009a85760405162461bcd60e51b81526004016200093f9062003dba565b806001600160a01b0316620009bc62002094565b6001600160a01b03161480620009dc5750620009dc816200082a62002094565b620009fb5760405162461bcd60e51b81526004016200093f90620039db565b62000a07838362002098565b505050565b3360009081526097602052604081205460ff16151560011462000a435760405162461bcd60e51b81526004016200093f906200387e565b6001600160a01b0382166000908152609d60209081526040808320609b835281842080546001600160a01b03191633179055609e8352818420609f5485529092529091208154815560018083015490820155600280830154908201556003808301549082015560048083018054918301805460ff938416151560ff1990911617808255915461010090819004909316151590920261ff00199091161790556005808301805484939262000afa929084019162002f1e565b5050609f805460019081019091556001600160a01b0385166000908152609d60205260408120818155918201819055600282018190556003820181905560048201805461ffff1916905590915062000b56600583018262002f73565b50506001609f5403836001600160a01b0316336001600160a01b03167fdbed931b17becd94839a9676e44502c99ae8c0daa39cc833fc8924dcf635ddb360405160405180910390a45050609f5460001901919050565b3360009081526098602052604090205460ff16151560011462000be35760405162461bcd60e51b81526004016200093f9062003eba565b6001600160a01b0381166000908152609d6020908152604091829020915162000c13918a918a91889101620036c8565b60408051601f19818403018152908290528051602091820120835562000c409188918891889101620036c8565b60408051601f1981840301815290829052805160209091012060018301556002820184905560048201805461ffff19169055839033907f061780c73ddb20753c4ac9776b2c6e272e2a3edcf51cf578d6cc34e15037200990600090a35050505050505050565b609f5481565b600062000cba606662002108565b905090565b60a054604051636a56629760e01b81526001600160a01b0390911690636a5662979062000cf190849060040162003f98565b60206040518083038186803b15801562000d0a57600080fd5b505afa15801562000d1f573d6000803e3d6000fd5b505050506040513d601f19601f8201168201806040525062000d459190810190620033cd565b5050565b3360009081526097602052604090205460ff168062000d7757503360009081526098602052604090205460ff165b62000d965760405162461bcd60e51b81526004016200093f9062003987565b6001600160a01b0383166000908152609e602090815260408083208584529091529020600381018054600101908190556002141562000e265760028101805460058301805460018101825560009182526020822001919091559083905560038201819055604051839185917fae8f1c1843d462278a18d86da21362c3c2be9ba1031a16fb568f0bbe2e6b448f9190a35b50505050565b62000e4162000e3a62002094565b8262002115565b62000e605760405162461bcd60e51b81526004016200093f9062003dfb565b62000a07838383620021a7565b6001600160a01b038216600090815260656020526040812062000e97908363ffffffff620022d916565b90505b92915050565b62000a078383836040518060200160405280600081525062001861565b3360009081526098602052604090205460ff16151560011462000ef45760405162461bcd60e51b81526004016200093f9062003eba565b62000eff81620022e7565b50565b60a0546001600160a01b031681565b60008062000f2760668463ffffffff620023cd16565b509392505050565b60976020526000908152604090205460ff1681565b600062000e9a8260405180606001604052806029815260200162004ea9602991396066919063ffffffff620023ed16565b6001600160a01b0381166000908152609c6020526040902054819062000faf5760405162461bcd60e51b81526004016200093f9062003a38565b62000fb962002f93565b86868080601f016020809104026020016040519081016040528093929190818152602001838380828437600092019190915250505090825250604080516020601f870181900481028201810190925285815290869086908190840183828082843760009201829052506020860194909452505060a05460405163ee0eb41560e01b81526001600160a01b03909116915063ee0eb415906200105f90859060040162003f52565b602060405180830381600087803b1580156200107a57600080fd5b505af11580156200108f573d6000803e3d6000fd5b505050506040513d601f19601f82011682018060405250620010b59190810190620033cd565b9050620010c162002fad565b60a054604051635bee29b760e01b81526001600160a01b0390911690635bee29b790620010f390859060040162003f98565b60206040518083038186803b1580156200110c57600080fd5b505afa15801562001121573d6000803e3d6000fd5b505050506040513d601f19601f8201168201806040525062001147919081019062003502565b80519091508a146200116d5760405162461bcd60e51b81526004016200093f9062003b1e565b6001600160a01b038516600081815260996020526040808220805460ff19166001179055517fc4a03316db53d5a20c35f37af80f6092df39a59057e4a9f2e45c8952a2824e5a9190a250505050505050505050565b60986020526000908152604090205460ff1681565b336000908152609a602052604090205460ff1615156001146200120e5760405162461bcd60e51b81526004016200093f9062003f0c565b336000908152609e6020908152604080832084845282529182902091516200123d9189918991879101620036c8565b60408051601f1981840301815290829052805160209182012083556200126a9187918791879101620036c8565b60408051601f198184030181528282528051602091820120600180860191909155336000818152609a8452848120805460ff1990811690915560989094529384208054909316909117909155849290917f0f17057c058227955304580e8ad3305c4fff882badabd5340cdc5eb55933f30191a350505050505050565b606d8054604080516020601f6002600019610100600188161502019095169490940493840181900481028201810190925282815260609390929091830182828015620009085780601f10620008dc5761010080835404028352916020019162000908565b336000908152609a602052604090205460ff161515600114620013815760405162461bcd60e51b81526004016200093f9062003f0c565b6001600160a01b0381166000908152609e60209081526040808320858452909152902060028101543414620013ca5760405162461bcd60e51b81526004016200093f9062003757565b60048101805461ff0019166101001790556040518390349033907f739a12d28bc58c6e66a2e0275de46cb0c8c6077d6147e73822b01953a14e680b90600090a4505050565b60006001600160a01b0382166200143a5760405162461bcd60e51b81526004016200093f9062003a86565b6001600160a01b038216600090815260656020526040902062000e9a9062002108565b609c6020526000908152604090205481565b600054610100900460ff16806200148b57506200148b62002406565b806200149a575060005460ff16155b620014b95760405162461bcd60e51b81526004016200093f9062003ad0565b600054610100900460ff16158015620014e5576000805460ff1961ff0019909116610100171660011790555b604051620014f39062002fbf565b604051809103906000f08015801562001510573d6000803e3d6000fd5b5060a060006101000a8154816001600160a01b0302191690836001600160a01b031602179055506200157d6040518060400160405280600681526020016542726964676560d01b815250604051806040016040528060048152602001634252444760e01b8152506200240c565b336000908152609760205260408120805460ff19166001179055609f55801562000eff576000805461ff001916905550565b609d60205260009081526040902080546001820154600283015460038401546004909401549293919290919060ff8082169161010090041686565b609a6020526000908152604090205460ff1681565b609b602052600090815260409020546001600160a01b031681565b606b8054604080516020601f6002600019610100600188161502019095169490940493840181900481028201810190925282815260609390929091830182828015620009085780601f10620008dc5761010080835404028352916020019162000908565b3360009081526097602052604090205460ff161515600114620016b55760405162461bcd60e51b81526004016200093f906200387e565b33600081815260976020526040808220805460ff19169055517f5d663bb027a27c27341f8b0d6d24d81d85d4572e74d95dfab66e94fc497aaadd9190a2565b620016fe62002094565b6001600160a01b0316826001600160a01b03161415620017325760405162461bcd60e51b81526004016200093f9062003904565b80606960006200174162002094565b6001600160a01b03908116825260208083019390935260409182016000908120918716808252919093529120805460ff1916921515929092179091556200178762002094565b6001600160a01b03167f17307eab39ab6107e8899845ad3d59bd9653f200f220920489ca2b5937696c3183604051620017c1919062003691565b60405180910390a35050565b3360009081526097602052604090205460ff161515600114620018045760405162461bcd60e51b81526004016200093f906200387e565b6001600160a01b038181166000908152609b602052604090205416331415620018415760405162461bcd60e51b81526004016200093f9062003bca565b6001600160a01b03166000908152609c6020526040902080546001019055565b620018766200186f62002094565b8362002115565b620018955760405162461bcd60e51b81526004016200093f9062003dfb565b62000e2684848484620024b9565b6060620018b0826200207f565b620018cf5760405162461bcd60e51b81526004016200093f9062003d19565b6000828152606c602090815260409182902080548351601f6002600019610100600186161502019093169290920491820184900484028101840190945280845260609392830182828015620019685780601f106200193c5761010080835404028352916020019162001968565b820191906000526020600020905b8154815290600101906020018083116200194a57829003601f168201915b5050606d54939450505050600260001961010060018416150201909116046200199357905062000873565b805115620019c957606d81604051602001620019b1929190620035b5565b60405160208183030381529060405291505062000873565b606d620019d684620024f3565b604051602001620019e9929190620035b5565b604051602081830303815290604052915050919050565b3360009081526097602052604090205460ff16151560011462001a375760405162461bcd60e51b81526004016200093f906200387e565b6001600160a01b0383166000908152609e602090815260408083208484529091529020600481015460ff1662001a815760405162461bcd60e51b81526004016200093f9062003e4c565b6004810154610100900460ff1662001aad5760405162461bcd60e51b81526004016200093f9062003c27565b6001600160a01b03831660009081526099602052604090205460ff1662001ae85760405162461bcd60e51b81526004016200093f9062003847565b62001af584848462000ea0565b60028101546040516001600160a01b0386169180156108fc02916000818181858888f1935050505015801562001b2f573d6000803e3d6000fd5b506004818101805461ffff191681556001600160a01b0385166000908152609e602090815260408083208784529091529020835481556001808501549082015560028085015490820155600380850154908201558154928101805460ff191660ff948516151517808255925461ff00199093166101009384900490941615159092029290921790556005808301805484939262001bd0929084019162002f1e565b5050506001600160a01b0384166000908152609e60209081526040808320858452909152812081815560018101829055600281018290556003810182905560048101805461ffff191690559062001c2b600583018262002f73565b505050506001600160a01b039081166000908152609a602090815260408083208054600160ff1991821617909155949093168252609890522080549091169055565b3360009081526098602052604090205460ff16151560011462001ca45760405162461bcd60e51b81526004016200093f9062003eba565b336000908152609e60209081526040808320858452825291829020915162001cd39189918991869101620036c8565b60405160208183030381529060405280519060200120816000015414801562001d2b575084848360405160200162001d0e93929190620036c8565b604051602081830303815290604052805190602001208160010154145b62001d4a5760405162461bcd60e51b81526004016200093f9062003d68565b62001d563384620025bf565b50505050505050565b60996020526000908152604090205460ff1681565b6001600160a01b0381166000908152609c6020526040902054819062001dae5760405162461bcd60e51b81526004016200093f9062003a38565b62001db862002f93565b86868080601f016020809104026020016040519081016040528093929190818152602001838380828437600092019190915250505090825250604080516020601f870181900481028201810190925285815290869086908190840183828082843760009201829052506020860194909452505060a05460405163ee0eb41560e01b81526001600160a01b03909116915063ee0eb4159062001e5e90859060040162003f52565b602060405180830381600087803b15801562001e7957600080fd5b505af115801562001e8e573d6000803e3d6000fd5b505050506040513d601f19601f8201168201806040525062001eb49190810190620033cd565b905062001ec062002fad565b60a054604051635bee29b760e01b81526001600160a01b0390911690635bee29b79062001ef290859060040162003f98565b60206040518083038186803b15801562001f0b57600080fd5b505afa15801562001f20573d6000803e3d6000fd5b505050506040513d601f19601f8201168201806040525062001f46919081019062003502565b80519091508a1462001f6c5760405162461bcd60e51b81526004016200093f9062003b1e565b6001600160a01b038516600081815260986020526040808220805460ff19166001179055517f260417376bfb1a5f9fbf2d2d67e9c975b4c4e37088eab604034d6d04cf06c9219190a250505050505050505050565b6001600160a01b03918216600090815260696020908152604080832093909416825291909152205460ff1690565b3360009081526098602052604090205460ff161515600114620020265760405162461bcd60e51b81526004016200093f9062003eba565b336000818152609e6020908152604080832085845290915280822060048101805460ff1916600117905590519092849290917ed797bd7aa65a2d60ac45f84f5124b1a6ece5e2c968edbaf607d411d1b41aad9190a35050565b600062000e9a60668363ffffffff620025cb16565b3390565b600081815260686020526040902080546001600160a01b0319166001600160a01b0384169081179091558190620020cf8262000f44565b6001600160a01b03167f8c5be1e5ebec7d5bd14f71427d1e84f3dd0314c0f7b2291e5b200ac8c7c3b92560405160405180910390a45050565b600062000e9a82620025d9565b600062002122826200207f565b620021415760405162461bcd60e51b81526004016200093f906200393b565b60006200214e8362000f44565b9050806001600160a01b0316846001600160a01b031614806200218c5750836001600160a01b0316620021818462000913565b6001600160a01b0316145b806200219f57506200219f818562001fc1565b949350505050565b826001600160a01b0316620021bc8262000f44565b6001600160a01b031614620021e55760405162461bcd60e51b81526004016200093f9062003cd0565b6001600160a01b0382166200220e5760405162461bcd60e51b81526004016200093f90620038c0565b6200221b83838362000a07565b6200222860008262002098565b6001600160a01b038316600090815260656020526040902062002252908263ffffffff620025dd16565b506001600160a01b03821660009081526065602052604090206200227d908263ffffffff620025eb16565b50620022926066828463ffffffff620025f916565b5080826001600160a01b0316846001600160a01b03167fddf252ad1be2c89b69c2b068fc378daa952ba7f163c4a11628f55a4df523b3ef60405160405180910390a4505050565b600062000e97838362002611565b6000620022f48262000f44565b9050620023048160008462000a07565b6200231160008362002098565b6000828152606c6020526040902054600260001961010060018416150201909116041562002352576000828152606c60205260408120620023529162002fcd565b6001600160a01b03811660009081526065602052604090206200237c908363ffffffff620025dd16565b506200239060668363ffffffff6200265a16565b5060405182906000906001600160a01b038416907fddf252ad1be2c89b69c2b068fc378daa952ba7f163c4a11628f55a4df523b3ef908390a45050565b6000808080620023de868662002668565b909450925050505b9250929050565b6000620023fc848484620026c8565b90505b9392505050565b303b1590565b600054610100900460ff16806200242857506200242862002406565b8062002437575060005460ff16155b620024565760405162461bcd60e51b81526004016200093f9062003ad0565b600054610100900460ff1615801562002482576000805460ff1961ff0019909116610100171660011790555b6200248c6200272b565b62002496620027b6565b620024a283836200283e565b801562000a07576000805461ff0019169055505050565b620024c6848484620021a7565b620024d48484848462002916565b62000e265760405162461bcd60e51b81526004016200093f9062003787565b6060816200251a57506040805180820190915260018152600360fc1b602082015262000873565b8160005b81156200253457600101600a820491506200251e565b6060816040519080825280601f01601f19166020018201604052801562002562576020820181803883390190505b50859350905060001982015b8315620025b657600a840660300160f81b828280600190039350815181106200259357fe5b60200101906001600160f81b031916908160001a905350600a840493506200256e565b50949350505050565b62000d45828262002a08565b600062000e97838362002a24565b5490565b600062000e97838362002a3c565b600062000e97838362002b08565b6000620023fc84846001600160a01b03851662002b57565b81546000908210620026375760405162461bcd60e51b81526004016200093f9062003715565b8260000182815481106200264757fe5b9060005260206000200154905092915050565b600062000e97838362002bf2565b815460009081908310620026905760405162461bcd60e51b81526004016200093f9062003b53565b6000846000018481548110620026a257fe5b906000526020600020906002020190508060000154816001015492509250509250929050565b60008281526001840160205260408120548281620026fb5760405162461bcd60e51b81526004016200093f919062003700565b508460000160018203815481106200270f57fe5b9060005260206000209060020201600101549150509392505050565b600054610100900460ff16806200274757506200274762002406565b8062002756575060005460ff16155b620027755760405162461bcd60e51b81526004016200093f9062003ad0565b600054610100900460ff16158015620027a1576000805460ff1961ff0019909116610100171660011790555b801562000eff576000805461ff001916905550565b600054610100900460ff1680620027d25750620027d262002406565b80620027e1575060005460ff16155b620028005760405162461bcd60e51b81526004016200093f9062003ad0565b600054610100900460ff161580156200282c576000805460ff1961ff0019909116610100171660011790555b620027a16301ffc9a760e01b62002ccb565b600054610100900460ff16806200285a57506200285a62002406565b8062002869575060005460ff16155b620028885760405162461bcd60e51b81526004016200093f9062003ad0565b600054610100900460ff16158015620028b4576000805460ff1961ff0019909116610100171660011790555b8251620028c990606a90602086019062003015565b508151620028df90606b90602085019062003015565b50620028f26380ac58cd60e01b62002ccb565b62002904635b5e139f60e01b62002ccb565b620024a263780e9d6360e01b62002ccb565b60006200292c846001600160a01b031662002d1d565b6200293a575060016200219f565b6060620029cf630a85bd0160e11b6200295262002094565b8887876040516024016200296a949392919062003652565b604051602081830303815290604052906001600160e01b0319166020820180516001600160e01b03838183161783525050505060405180606001604052806032815260200162004e77603291396001600160a01b038816919063ffffffff62002d2316565b9050600081806020019051620029e99190810190620033ae565b6001600160e01b031916630a85bd0160e11b1492505050949350505050565b62000d4582826040518060200160405280600081525062002d34565b60009081526001919091016020526040902054151590565b6000818152600183016020526040812054801562002afd578354600019808301919081019060009087908390811062002a7157fe5b906000526020600020015490508087600001848154811062002a8f57fe5b60009182526020808320909101929092558281526001898101909252604090209084019055865487908062002ac057fe5b6001900381819060005260206000200160009055905586600101600087815260200190815260200160002060009055600194505050505062000e9a565b600091505062000e9a565b600062002b16838362002a24565b62002b4e5750815460018181018455600084815260208082209093018490558454848252828601909352604090209190915562000e9a565b50600062000e9a565b60008281526001840160205260408120548062002bbe575050604080518082018252838152602080820184815286546001818101895560008981528481209551600290930290950191825591519082015586548684528188019092529290912055620023ff565b8285600001600183038154811062002bd257fe5b9060005260206000209060020201600101819055506000915050620023ff565b6000818152600183016020526040812054801562002afd578354600019808301919081019060009087908390811062002c2757fe5b906000526020600020906002020190508087600001848154811062002c4857fe5b60009182526020808320845460029093020191825560019384015491840191909155835482528983019052604090209084019055865487908062002c8857fe5b600082815260208082206002600019909401938402018281556001908101839055929093558881528982019092526040822091909155945062000e9a9350505050565b6001600160e01b0319808216141562002cf85760405162461bcd60e51b81526004016200093f90620037d9565b6001600160e01b0319166000908152603360205260409020805460ff19166001179055565b3b151590565b6060620023fc848460008562002d6e565b62002d40838362002e40565b62002d4f600084848462002916565b62000a075760405162461bcd60e51b81526004016200093f9062003787565b606062002d7b8562002d1d565b62002d9a5760405162461bcd60e51b81526004016200093f9062003e83565b60006060866001600160a01b0316858760405162002db9919062003597565b60006040518083038185875af1925050503d806000811462002df8576040519150601f19603f3d011682016040523d82523d6000602084013e62002dfd565b606091505b5091509150811562002e135791506200219f9050565b80511562002e245780518082602001fd5b8360405162461bcd60e51b81526004016200093f919062003700565b6001600160a01b03821662002e695760405162461bcd60e51b81526004016200093f9062003b95565b62002e74816200207f565b1562002e945760405162461bcd60e51b81526004016200093f9062003810565b62002ea26000838362000a07565b6001600160a01b038216600090815260656020526040902062002ecc908263ffffffff620025eb16565b5062002ee16066828463ffffffff620025f916565b5060405181906001600160a01b038416906000907fddf252ad1be2c89b69c2b068fc378daa952ba7f163c4a11628f55a4df523b3ef908290a45050565b82805482825590600052602060002090810192821562002f615760005260206000209182015b8281111562002f6157825482559160010191906001019062002f44565b5062002f6f92915062003088565b5090565b508054600082559060005260206000209081019062000eff919062003088565b604051806040016040528060608152602001606081525090565b60408051602081019091526000815290565b610e51806200402683390190565b50805460018160011615610100020316600290046000825580601f1062002ff5575062000eff565b601f01602090049060005260206000209081019062000eff919062003088565b828054600181600116156101000203166002900490600052602060002090601f016020900481019282601f106200305857805160ff191683800117855562002f61565b8280016001018555821562002f61579182015b8281111562002f615782518255916020019190600101906200306b565b6200091091905b8082111562002f6f57600081556001016200308f565b80356001600160a01b038116811462000e9a57600080fd5b60008083601f840112620030cf578182fd5b50813567ffffffffffffffff811115620030e7578182fd5b602083019150836020828501011115620023e657600080fd5b60006020828403121562003112578081fd5b62000e978383620030a5565b6000806040838503121562003131578081fd5b6200313d8484620030a5565b91506200314e8460208501620030a5565b90509250929050565b6000806000606084860312156200316c578081fd5b8335620031798162003ff8565b925060208401356200318b8162003ff8565b929592945050506040919091013590565b60008060008060808587031215620031b2578081fd5b620031be8686620030a5565b93506020620031d087828801620030a5565b935060408601359250606086013567ffffffffffffffff80821115620031f4578384fd5b81880189601f82011262003206578485fd5b803592508183111562003217578485fd5b6200322b601f8401601f1916850162003fa1565b9150828252898484830101111562003241578485fd5b8284820185840137509081019091019190915292959194509250565b6000806040838503121562003270578182fd5b6200327c8484620030a5565b91506020830135801515811462003291578182fd5b809150509250929050565b60008060408385031215620032af578182fd5b620032bb8484620030a5565b946020939093013593505050565b600080600060608486031215620032de578283fd5b620032ea8585620030a5565b95602085013595506040909401359392505050565b6000806000806000806080878903121562003318578182fd5b86359550602087013567ffffffffffffffff8082111562003337578384fd5b620033458a838b01620030bd565b909750955060408901359150808211156200335e578384fd5b506200336d89828a01620030bd565b90945092506200338390508860608901620030a5565b90509295509295509295565b600060208284031215620033a1578081fd5b8135620023ff816200400e565b600060208284031215620033c0578081fd5b8151620023ff816200400e565b600060208284031215620033df578081fd5b5051919050565b60008060008060008060808789031215620033ff578384fd5b863567ffffffffffffffff8082111562003417578586fd5b620034258a838b01620030bd565b909850965060208901359150808211156200343e578586fd5b506200344d89828a01620030bd565b979a9699509760408101359660609091013595509350505050565b600080600080600080600060a0888a03121562003483578485fd5b873567ffffffffffffffff808211156200349b578687fd5b620034a98b838c01620030bd565b909950975060208a0135915080821115620034c2578687fd5b50620034d18a828b01620030bd565b9096509450506040880135925060608801359150620034f48960808a01620030a5565b905092959891949750929550565b60006020828403121562003514578081fd5b62003520602062003fa1565b9151825250919050565b6000602082840312156200353c578081fd5b5035919050565b6000806040838503121562003556578182fd5b823591506200314e8460208501620030a5565b600081518084526200358381602086016020860162003fc9565b601f01601f19169290920160200192915050565b60008251620035ab81846020870162003fc9565b9190910192915050565b6000808454600180821660008114620035d75760018114620035ef5762003620565b60ff198316865260028304607f168601935062003620565b600283048886526020808720875b83811015620036185781548a820152908501908201620035fd565b505050860193505b50505083516200363581836020880162003fc9565b01949350505050565b6001600160a01b0391909116815260200190565b6001600160a01b0385811682528416602082015260408101839052608060608201819052600090620036879083018462003569565b9695505050505050565b901515815260200190565b95865260208601949094526040850192909252606084015215156080830152151560a082015260c00190565b6000604082528360408301528385606084013780606085840101526060601f19601f8601168301019050826020830152949350505050565b60006020825262000e97602083018462003569565b60208082526022908201527f456e756d657261626c655365743a20696e646578206f7574206f6620626f756e604082015261647360f01b606082015260800190565b602080825260169082015275135d5cdd081cd95b9908195e1858dd08185b5bdd5b9d60521b604082015260600190565b60208082526032908201527f4552433732313a207472616e7366657220746f206e6f6e20455243373231526560408201527131b2b4bb32b91034b6b83632b6b2b73a32b960711b606082015260800190565b6020808252601c908201527f4552433136353a20696e76616c696420696e7465726661636520696400000000604082015260600190565b6020808252601c908201527f4552433732313a20746f6b656e20616c7265616479206d696e74656400000000604082015260600190565b6020808252601a908201527f4d7573742062652076616c696461746564206173206f776e6572000000000000604082015260600190565b60208082526022908201527f4d75737420626520766572696669656420746f2063616c6c2066756e6374696f604082015261371760f11b606082015260800190565b60208082526024908201527f4552433732313a207472616e7366657220746f20746865207a65726f206164646040820152637265737360e01b606082015260800190565b60208082526019908201527f4552433732313a20617070726f766520746f2063616c6c657200000000000000604082015260600190565b6020808252602c908201527f4552433732313a206f70657261746f7220717565727920666f72206e6f6e657860408201526b34b9ba32b73a103a37b5b2b760a11b606082015260800190565b60208082526034908201527f4d75737420626520656974686572206f776e6572206f72206167656e7420746f6040820152731031b0b636103a3434b990333ab731ba34b7b71760611b606082015260800190565b60208082526038908201527f4552433732313a20617070726f76652063616c6c6572206973206e6f74206f7760408201527f6e6572206e6f7220617070726f76656420666f7220616c6c0000000000000000606082015260800190565b6020808252602e908201527f4d7573742068617665206167656e7420766572696679206265666f726520636160408201526d363634b73390333ab731ba34b7b760911b606082015260800190565b6020808252602a908201527f4552433732313a2062616c616e636520717565727920666f7220746865207a65604082015269726f206164647265737360b01b606082015260800190565b6020808252602e908201527f496e697469616c697a61626c653a20636f6e747261637420697320616c72656160408201526d191e481a5b9a5d1a585b1a5e995960921b606082015260800190565b6020808252818101527f446f6573206e6f74206d61746368204f7261636c652076616c69646174696f6e604082015260600190565b60208082526022908201527f456e756d657261626c654d61703a20696e646578206f7574206f6620626f756e604082015261647360f01b606082015260800190565b6020808252818101527f4552433732313a206d696e7420746f20746865207a65726f2061646472657373604082015260600190565b60208082526038908201527f4167656e74207468617420726567697374657265642070726f7065727479206360408201527f616e6e6f7420616c736f20617070726f7665206f776e65720000000000000000606082015260800190565b60208082526039908201527f5061796d656e7420746f20636f6e7472616374206d757374206265207265636560408201527f69766564206265666f72652066756e6374696f6e2063616c6c00000000000000606082015260800190565b6020808252602c908201527f4552433732313a20617070726f76656420717565727920666f72206e6f6e657860408201526b34b9ba32b73a103a37b5b2b760a11b606082015260800190565b60208082526029908201527f4552433732313a207472616e73666572206f6620746f6b656e2074686174206960408201526839903737ba1037bbb760b91b606082015260800190565b6020808252602f908201527f4552433732314d657461646174613a2055524920717565727920666f72206e6f60408201526e3732bc34b9ba32b73a103a37b5b2b760891b606082015260800190565b60208082526032908201527f46756e6374696f6e2063616c6c657220646f6573206e6f74206f776e2070726f6040820152711c195c9d1e481dda5d1a081d1a185d08125160721b606082015260800190565b60208082526021908201527f4552433732313a20617070726f76616c20746f2063757272656e74206f776e656040820152603960f91b606082015260800190565b60208082526031908201527f4552433732313a207472616e736665722063616c6c6572206973206e6f74206f6040820152701ddb995c881b9bdc88185c1c1c9bdd9959607a1b606082015260800190565b6020808252601d908201527f4f776e6572206d757374206861766520617070726f7665642073616c65000000604082015260600190565b6020808252601d908201527f416464726573733a2063616c6c20746f206e6f6e2d636f6e7472616374000000604082015260600190565b60208082526032908201527f4d7573742062652076616c6964617465642070726f7065727479206f776e6572604082015271103a379031b0b63610333ab731ba34b7b71760711b606082015260800190565b60208082526026908201527f4f6e6c79206e6577206f776e65722063616e2063616c6c20746869732066756e60408201526531ba34b7b71760d11b606082015260800190565b60006020825282516040602084015262003f70606084018262003569565b6020850151848203601f19016040860152915062003f8f818362003569565b95945050505050565b90815260200190565b60405181810167ffffffffffffffff8111828210171562003fc157600080fd5b604052919050565b60005b8381101562003fe657818101518382015260200162003fcc565b8381111562000e265750506000910152565b6001600160a01b038116811462000eff57600080fd5b6001600160e01b03198116811462000eff57600080fdfe6080604052600160045534801561001557600080fd5b5061003c73a36085f69e2889c224210f603d836748e7dc00886001600160e01b036100be16565b600880546001600160a01b0319908116731b666ad0d20bc4f35f218120d7ed1e2df60627cc179091557f653766626532633262646536343337383866346137366237623039646238666660095567016345785d8a0000600a556006805490911673aa1dc356dc4b18f30c347798fd5379f3d77abc5b1790556000600b556100e0565b600280546001600160a01b0319166001600160a01b0392909216919091179055565b610d62806100ef6000396000f3fe608060405234801561001057600080fd5b50600436106100885760003560e01c8063ddca3f431161005b578063ddca3f43146100f3578063e3a4d5c8146100fb578063e3cb03b914610110578063ee0eb4151461012357610088565b80635bee29b71461008d5780636a566297146100b65780637dc0d1d0146100d6578063c2939d97146100eb575b600080fd5b6100a061009b366004610b15565b610136565b6040516100ad9190610d22565b60405180910390f35b6100c96100c4366004610b15565b610169565b6040516100ad9190610c8e565b6100de6101ff565b6040516100ad9190610beb565b6100c961020e565b6100c9610214565b61010e610109366004610abb565b61021a565b005b6100c961011e366004610b15565b6102b4565b6100c9610131366004610adc565b6102c6565b61013e610a20565b610146610a20565b505060009081526007602090815260409182902082519182019092529054815290565b600080600660009054906101000a90046001600160a01b03166001600160a01b031663feaf968c6040518163ffffffff1660e01b815260040160a06040518083038186803b1580156101ba57600080fd5b505afa1580156101ce573d6000803e3d6000fd5b505050506040513d601f19601f820116820180604052506101f29190810190610b2d565b5050509093029392505050565b6008546001600160a01b031681565b60095481565b600a5481565b60008281526005602052604090205482906001600160a01b0316331461025b5760405162461bcd60e51b815260040161025290610cda565b60405180910390fd5b60008181526005602052604080822080546001600160a01b03191690555182917f7cc135e0cebb02c3480ae5d74d377283180a2601f8f644edf7987b009316c63a91a250600b5460009081526007602052604090205550565b60076020526000908152604090205481565b60006103ca82808035601e19368390030181126102e257600080fd5b9091016020810191503567ffffffffffffffff81111561030157600080fd5b3681900382131561031157600080fd5b8080601f016020809104026020016040519081016040528093929190818152602001838380828437600092019190915250869250506020820190508035601e193684900301811261036157600080fd5b9091016020810191503567ffffffffffffffff81111561038057600080fd5b3681900382131561039057600080fd5b8080601f0160208091040260200160405190810160405280939291908181526020018383808284376000920191909152506103df92505050565b506103d361047f565b5050600b546000190190565b60006103e9610a32565b6009546103fe9030631c749ab960e31b61048a565b60408051808201909152600381526219d95d60ea1b602082015290915061042d9082908663ffffffff6104b516565b6040805180820190915260048152630e0c2e8d60e31b602082015261045a9082908563ffffffff6104b516565b600854600a54610475916001600160a01b03169083906104e4565b9150505b92915050565b600b80546001019055565b610492610a32565b61049a610a32565b6104ac8186868663ffffffff61062316565b95945050505050565b60808301516104ca908363ffffffff61066016565b60808301516104df908263ffffffff61066016565b505050565b6000306004546040516020016104fb929190610bc9565b60408051808303601f19018152918152815160209283012060045460608701526000818152600590935281832080546001600160a01b0319166001600160a01b038916179055905190925082917fb5e6e01e79f91267dc17b4e6314d5d4d03593d2ceee0fbb452b750bd70ea5af991a26002546001600160a01b0316634000aea085846105878761067d565b6040518463ffffffff1660e01b81526004016105a593929190610c67565b602060405180830381600087803b1580156105bf57600080fd5b505af11580156105d3573d6000803e3d6000fd5b505050506040513d601f19601f820116820180604052506105f79190810190610a9b565b6106135760405162461bcd60e51b815260040161025290610c97565b6004805460010190559392505050565b61062b610a32565b61063b85608001516101006106f9565b50509183526001600160a01b031660208301526001600160e01b031916604082015290565b61066d8260038351610733565b6104df828263ffffffff61084316565b6060634042994660e01b600080846000015185602001518660400151876060015160018960800151600001516040516024016106c0989796959493929190610bff565b60408051601f198184030181529190526020810180516001600160e01b03166001600160e01b0319909316929092179091529050919050565b610701610a67565b60208206156107165760208206602003820191505b506020828101829052604080518085526000815290920101905290565b6017811161075a576107548360e0600585901b16831763ffffffff61086416565b506104df565b60ff81116107905761077d836018611fe0600586901b161763ffffffff61086416565b506107548382600163ffffffff61087c16565b61ffff81116107c7576107b4836019611fe0600586901b161763ffffffff61086416565b506107548382600263ffffffff61087c16565b63ffffffff8111610800576107ed83601a611fe0600586901b161763ffffffff61086416565b506107548382600463ffffffff61087c16565b67ffffffffffffffff81116104df5761082a83601b611fe0600586901b161763ffffffff61086416565b5061083d8382600863ffffffff61087c16565b50505050565b61084b610a67565b61085d8384600001515184855161089d565b9392505050565b61086c610a67565b61085d8384600001515184610949565b610884610a67565b610895848560000151518585610994565b949350505050565b6108a5610a67565b82518211156108b357600080fd5b846020015182850111156108dd576108dd856108d587602001518786016109f2565b600202610a09565b6000808651805187602083010193508088870111156108fc5787860182525b505050602084015b602084106109235780518252601f199093019260209182019101610904565b51815160001960208690036101000a019081169019919091161790525083949350505050565b610951610a67565b8360200151831061096d5761096d848560200151600202610a09565b83518051602085830101848153508085141561098a576001810182525b5093949350505050565b61099c610a67565b846020015184830111156109b9576109b985858401600202610a09565b60006001836101000a0390508551838682010185831982511617815250805184870111156109e75783860181525b509495945050505050565b600081831115610a03575081610479565b50919050565b8151610a1583836106f9565b5061083d8382610843565b60408051602081019091526000815290565b6040805160a081018252600080825260208201819052918101829052606081019190915260808101610a62610a67565b905290565b604051806040016040528060608152602001600081525090565b805169ffffffffffffffffffff8116811461047957600080fd5b600060208284031215610aac578081fd5b8151801515811461085d578182fd5b60008060408385031215610acd578081fd5b50508035926020909101359150565b600060208284031215610aed578081fd5b813567ffffffffffffffff811115610b03578182fd5b80830160408186031215610895578283fd5b600060208284031215610b26578081fd5b5035919050565b600080600080600060a08688031215610b44578081fd5b610b4e8787610a81565b9450602086015193506040860151925060608601519150610b728760808801610a81565b90509295509295909350565b60008151808452815b81811015610ba357602081850181015186830182015201610b87565b81811115610bb45782602083870101525b50601f01601f19169290920160200192915050565b60609290921b6bffffffffffffffffffffffff19168252601482015260340190565b6001600160a01b0391909116815260200190565b6001600160a01b0389811682526020820189905260408201889052861660608201526001600160e01b03198516608082015260a0810184905260c0810183905261010060e08201819052600090610c5883820185610b7e565b9b9a5050505050505050505050565b600060018060a01b0385168252836020830152606060408301526104ac6060830184610b7e565b90815260200190565b60208082526023908201527f756e61626c6520746f207472616e73666572416e6443616c6c20746f206f7261604082015262636c6560e81b606082015260800190565b60208082526028908201527f536f75726365206d75737420626520746865206f7261636c65206f6620746865604082015267081c995c5d595cdd60c21b606082015260800190565b905181526020019056fea264697066735822122012329b5225231f644bc32452ff51ffa85624899f581f7c0b83bbe984fcf0798b64736f6c634300060200334552433732313a207472616e7366657220746f206e6f6e20455243373231526563656976657220696d706c656d656e7465724552433732313a206f776e657220717565727920666f72206e6f6e6578697374656e7420746f6b656ea2646970667358221220fb5b3f2096d776a842d215ab4c82eced09223915725d3ecf2dfa4fcf7b13e00464736f6c63430006020033",
  "linkReferences": {},
  "deployedLinkReferences": {}
}